:020000040800F2
:1000000000000220297600084154000843540008EB
:1000100045540008475400084954000800000000F7
:100020000000000000000000000000004B54000829
:100030004D540008000000004F54000851540008BF
:1000400079760008797600087976000879760008D4
:1000500079760008797600087976000879760008C4
:1000600079760008797600087976000879760008B4
:1000700079760008797600087976000879760008A4
:100080007976000879760008797600087976000894
:100090007976000879760008797600087976000884
:1000A0007976000879760008797600087976000874
:1000B0007976000879760008797600087976000864
:1000C0007976000879760008797600087976000854
:1000D0007976000859540008797600087976000886
:1000E0007976000879760008797600087976000834
:1000F0007976000879760008797600087976000824
:100100007976000879760008797600087976000813
:100110007976000879760008797600087976000803
:100120007976000879760008695400087976000825
:1001300079760008797600087976000879760008E3
:1001400079760008797600087976000879760008D3
:1001500079760008797600087976000879760008C3
:1001600079760008797600087976000879760008B3
:10017000797600087976000879760008000000009A
:08018000797600087976000889
:1001C0000348044B834202D0034B03B118477047E6
:1001D000DC010020DC010020000000000548064989
:1001E0000B1AD90F01EBA301491002D0034B03B145
:1001F00018477047DC010020DC01002000000000EF
:1002000010B5064C237843B9FFF7DAFF044B13B15E
:100210000448AFF300800123237010BDE0010020EB
:10022000000000000087000808B5044B1BB104491A
:100230000448AFF30080BDE80840CFE700000000AD
:10024000E40100200087000870B50D4E0D4D761BAF
:10025000B61006D0002455F8043B01349847A64256
:10026000F9D1094E094D761B08F04AFAB61006D0AE
:10027000002455F8043B01349847A642F9D170BDDB
:10028000988B0008988B0008A08B0008988B0008BA
:10029000844641EA000313F003036DD1403A41D391
:1002A00051F8043B40F8043B51F8043B40F8043B50
:1002B00051F8043B40F8043B51F8043B40F8043B40
:1002C00051F8043B40F8043B51F8043B40F8043B30
:1002D00051F8043B40F8043B51F8043B40F8043B20
:1002E00051F8043B40F8043B51F8043B40F8043B10
:1002F00051F8043B40F8043B51F8043B40F8043B00
:1003000051F8043B40F8043B51F8043B40F8043BEF
:1003100051F8043B40F8043B51F8043B40F8043BDF
:10032000403ABDD2303211D351F8043B40F8043B7F
:1003300051F8043B40F8043B51F8043B40F8043BBF
:1003400051F8043B40F8043B103AEDD20C3205D38F
:1003500051F8043B40F8043B043AF9D2043208D087
:10036000D2071CBF11F8013B00F8013B01D30B88F9
:1003700003806046704700BF082A13D38B078DD0D7
:1003800010F003038AD0C3F10403D21ADB071CBFA9
:1003900011F8013B00F8013B80D331F8023B20F813
:1003A000023B7BE7043AD9D3013A11F8013B00F84C
:1003B000013BF9D20B7803704B7843708B788370D4
:1003C00060467047830730B548D0541E002A3FD09E
:1003D000CAB2034601E0013C3AD303F8012B9D0762
:1003E000F9D1032C2DD9CDB245EA05250F2C45EACC
:1003F000054536D9A4F1100222F00F0C03F1200EAE
:10040000E6444FEA121C03F1100242E9045542E9A6
:10041000025510327245F8D10CF1010214F00C0FA4
:1004200003EB021204F00F0C13D0ACF1040323F021
:1004300003030433134442F8045B9342FBD10CF0F2
:1004400003042CB1CAB21C4403F8012B9C42FBD11B
:1004500030BD64461346002CF4D1F9E70346144638
:10046000BFE71A46A446E0E72DE9F04757EC106BCA
:1004700084B0002F0C46DDE90CA9904619465FDBDD
:100480000025B9F1660F0D701AD0B9F1460F17D0DB
:1004900029F02003452B36D003AA019202AA00922C
:1004A00047EC106B53462246022100F0D1FFB9F110
:1004B000670F054634D118F0010F34D1039B1BE0C0
:1004C00003AB019302AB009347EC106B53462246FB
:1004D000032100F0BDFF054600EB04082B78302B0C
:1004E00033D0DAF800404444304639460022002335
:1004F00004F0D2FBC8B123460E9A5B1B284613605A
:1005000004B0BDE8F08703AA0192013402AA009268
:1005100047EC106B53462246022100F099FF054636
:10052000B9F1470FC7D02C44DEE7039B9C42E3D9C7
:1005300030215A1C03921970039BA342F9D3DBE7C5
:1005400007F100432D251F469BE70022002330467C
:10055000394604F0A1FB0028C3D1C4F10104CAF854
:100560000040C0E7F0B5002983B002703FDB841C77
:100570002B230929437030DD0DF107051F4FAC46D1
:1005800087FB0132CB17C3EBA20303EB8302A1EB82
:1005900042020E463032632EE6460CF8012C194614
:1005A0000CF1FF3CECDC3031AEF10203C9B29D42EC
:1005B0000CF8011C1FD96346224601E013F8011B09
:1005C00002F8011BAB42F9D10DF10903A3EB0E0EAA
:1005D000A644AEEB000003B0F0BD3023A64619449C
:1005E0000EF8023B6170AEEB000003B0F0BD494273
:1005F000841C2D23BDE7A646F5E700BF6766666647
:100600002DE9F04F2DED028B8DB00C46DDF86080AA
:1006100016461F46054602F02FF90368184608EEF5
:10062000103A00F02DFD00230A93D8F8003007900F
:10063000073323F0070303F10802D4F800B094F85D
:1006400018A0C8F80020D3E9008929F000430593D9
:10065000CDF81080C4E91289DDE90401A74B4FF001
:10066000FF3204F04BFB48B9DDE90401A34B4FF026
:10067000FF3204F025FB002800F0928042464B46F2
:100680004046494604F03AFB002840F03482616855
:100690004B1C2DD0BAF1670F68D0BAF1470F65D067
:1006A0004BF480620023226003930AAB029309ABF0
:1006B00049EC108B0093CDF804A00DF123032846DC
:1006C000FFF7D2FE8046BAF1650F099934D8013997
:1006D000524604F150000991FFF744FF0A9A13189B
:1006E000012A8146236140F37E810133236135E095
:1006F000062161604BF480620023226003930AAB01
:10070000029309AB49EC108B0093CDF804A00DF1D6
:1007100023032846FFF7A8FE0AF0DF03472B804695
:10072000D1D10999C81C80F2FE80AAF1020A5FFAB1
:100730008AFABAF1650FCAD9BAF1660F00F0FA80E9
:100740000A9B8B4240F301810029D4BFC1F1020210
:10075000012213442361A1654FF000099DF8233065
:10076000002B35D02D2384F8433031E0002900F0F0
:1007700023814BF480620023226003930AAB02932F
:1007800009AB49EC108B0093CDF804A00DF12303C5
:100790002846FFF769FE09998046C81CC5DBC2E000
:1007A000404649460022002304F080FA10B12D2370
:1007B00084F84330524B53482BF00402BAF1470FF0
:1007C00094BF984680460323226023614FF00009BE
:1007D000009733460BAA2146284600F0ABF90130BA
:1007E00025D02368580531D423694246314628462E
:1007F000B84701301BD02368E06813F0020F0B9B51
:100800001CD0C21A002A19DD04F119094FF00008A2
:1008100004E0E0680B9BC21A42450FDD01234A4603
:1008200031462846B847013008F10108F1D14FF0B0
:10083000FF300DB0BDEC028BBDE8F08F9842B8BF21
:1008400018460DB0BDEC028BBDE8F08FBAF1650F14
:1008500032D9D4E912010022002304F01DFA002845
:100860007BD0294A012331462846B8470130DED0E3
:10087000DDE909239A4202DB2368D907BCD5079B2F
:1008800018EE102A31462846B8470130CFD00A9BCF
:10089000012BB0DD04F11A094FF0000803E00A9BB8
:1008A000013B4345A7DD01234A463146284698448B
:1008B000B8470130F3D1BAE70A9A012A7FDD012354
:1008C000424631462846B8470130B0D0079B18EE63
:1008D000102A31462846B8470130A8D0D4E9120181
:1008E0000022002304F0D8F9002877D00A9B012BBE
:1008F00070DD04F11A0A4FF000080BE0FFFFEF7FF4
:100900004C8A0008508A00085C8A00080A9B013B58
:1009100043455FDD01235246314628469844B84797
:100920000130F3D183E7636899423FF7FEAE4FF0A1
:10093000670A05E700295BDD63682161002B00F091
:10094000898001330B44236105E723682161DB07BC
:100950007FF501AF4B1C2361FDE6099B002B4FDDAA
:100960000A9BD4F858A05345A8BF5346002B9B467A
:1009700008DD424631462846B84701303FF457AFBC
:10098000D4F858A02BEAEB7BAAEB0B03002B6EDD0F
:1009900004F11A024FF00009924604E0A36DA3EBA4
:1009A0000B024A4562DD01235246314628469944EE
:1009B000B8470130F2D13AE7012161609AE6DB07DE
:1009C0003FF57DAF4246012331462846B847013006
:1009D0003FF42DAF4B4604F1500207E70A9B08F1A4
:1009E0000102013BF0E72268D2077FF5B7AE7CE653
:1009F0006368002B33D12268D20730D40123A9E6E3
:100A0000494A012331462846B84701303FF40FAF29
:100A1000DDE90923134324D0079B18EE102A314641
:100A20002846B84701303FF402AF099B002B77DA24
:100A300004F11A0A4FF0000903E0099B5B424B45A1
:100A40006EDD01235246314628469944B8470130AD
:100A5000F3D1ECE62268D0077FF57DAE71E7023373
:100A600078E62368DA077FF5C7AED5E79A46DDE971
:100A700009218A4202DB2368D8070AD5079B18EEB2
:100A8000102A31462846B84701303FF4D0AEDDE9A0
:100A90000921A1EB0A098A1A9145A8BF9146B9F12B
:100AA000000F0BDD08EB0A024B4631462846B847DB
:100AB00001303FF4BCAEDDE90932D21A29EAE97906
:100AC000A2EB0903002B7FF796AE04F11A0A4FF050
:100AD000000807E0DDE909239B1AA3EB090343455E
:100AE0007FF789AE01235246314628469844B847DD
:100AF0000130EFD19BE64B46002BBCBF2D2384F881
:100B000043302BF00403094A2360094BBAF1470F25
:100B100094BF90469846032323614FF0000957E69F
:100B20000A9B424662E600BF5C8A0008548A0008BD
:100B3000588A00082DE9F84F92461F460A698B68CB
:100B4000DDF828909A42B8BF1A46CAF8002091F8FA
:100B500043300C46064613B10132CAF80020226821
:100B600091065DD5DAF800300233CAF80030226809
:100B700012F0060F11461ED1E168CB1A002BD8BF28
:100B8000114618DD04F1190B4FF0000805E0E56887
:100B9000DAF80030ED1A45450CDD01235A46394696
:100BA0003046C847013008F10108F0D14FF0FF305E
:100BB000BDE8F88F216894F84330003B18BF01234B
:100BC0008A060AD5E1185A1C302081F843002244D5
:100BD00094F8451082F84310023304F14302394679
:100BE0003046C8470130E1D0236803F00603042BE8
:100BF0001DD0A3682269934225DD4FF000089B1A9F
:100C000098441A34002501E045451CDA01232246A8
:100C100039463046C847013005F10105F4D1C5E732
:100C200012F0060F12D0003B18BF0123D5E7DAF807
:100C30000030E1682269C91AA368934221EAE17889
:100C4000DDDC0029DDDC0020BDE8F88FE168DAF8A2
:100C50000030CB1A002BD8BF114693DCABE700BFA6
:100C60002DE9F0470C4684B09046227E0C99074649
:100C7000994604F14300002A33D0A2F15803DDB2B3
:100C8000202D67D8202B65D8DFE813F0DE00640044
:100C90006400640064006400640064006400640034
:100CA0006400A3006E0064006400640064006E00D1
:100CB000640064006400640021007F00C0006400E0
:100CC0006400AE0064007F0064006400E5002368F7
:100CD0001A0640F104810B6862691D1D0D601B68D6
:100CE0001A60002382462361CDF80090434603AA90
:100CF00021463846FFF71EFF013020D023695246B7
:100D000041463846C847013019D02368E068039E41
:100D10009B0719D5831B002B16DD04F1190A00254A
:100D200004E0E068039E831BAB420DDD01235246C5
:100D300041463846C847013005F10105F1D14FF071
:100D4000FF3004B0BDE8F087B042B8BF304604B011
:100D5000BDE8F087012384F84220236104F1420AB0
:100D6000002384F84330BFE723681A0602D45E06E6
:100D700000F1C1800D682A6804350D601546002A0F
:100D80006BDBDFF884C10A2610E023681D0640F102
:100D90009C800B681D1D0D601D68DFF86CC16F2AFB
:100DA0000CBF08260A26002384F843306268A2603C
:100DB000002A7FDB236823F004032360002D5BD12E
:100DC000002A79D18246082E65D0A0EB0A00206166
:100DD0008AE70B680122186804330B6004F1420AA9
:100DE00084F842002261BBE70B686268181D086046
:100DF000D3F800A00021504601F0EAFD002800F0E1
:100E00008180A0EB0A0060602061A9E7236843F0BD
:100E1000200323607822DFF8F4C084F845200A68B4
:100E2000151D0D601D0643D4590641D51588DE07F2
:100E300044BF43F020032360002D44D1236823F0F6
:100E4000200323601026AEE7582384F84530DFF8EE
:100E5000B8C02368E3E72368DCE76268A2602D215D
:100E6000002AC5F1000584F8431002DB23F00403D7
:100E70002360DFF894C00A268246B5FBF6F306FB32
:100E800013512A461CF801100AF8011DB2421D46F2
:100E9000F3D2082E99D12368D90796D562682369C1
:100EA0009A4292DC30230AF8013C0AF1FF3A8CE7BF
:100EB0001568BCE7002DDFD19CF8003084F8423083
:100EC00004F1420A7FE710266DE713F0400F0B682C
:100ED00003F104050D600CBF1D681D885DE713F06C
:100EE000400F0B68626903F104050D601B6814BFB5
:100EF0001A801A60F5E60A68B2F9005004320A60F6
:100F00002A463CE760687FE7608A0008748A000828
:100F10000EB410B5044683B008B183695BB106AB6B
:100F2000A168059A0193204602F026FC03B0BDE8B3
:100F3000104003B0704701F039FCF0E70FB410B572
:100F40000A4B1C6882B00CB1A3695BB105ABA16808
:100F5000049A0193204602F00FFC02B0BDE8104055
:100F600004B07047204601F021FCEFE700000020AC
:100F70002DE9F0410E460746002833D083697BB344
:100F800084682F4B9C4237D02E4B9C423FD02E4B37
:100F90009C4208BFFC68A3891B0731D523697BB33A
:100FA0003578B0463DB934E023685A1C22601D7084
:100FB00018F8015F6DB3A368013B002BA360F3DA5F
:100FC000A669B34229462246384601DB0A2DEBD1F9
:100FD00000F0C4F80130EBD14FF0FF30BDE8F081F4
:100FE00001F0E4FBBB69BC68002BCAD1384601F0B4
:100FF000DDFB134B9C42C7D17C68A3891B07CDD472
:101000002146384600F00EF90028C9D0E4E7BC6854
:10101000C1E7A368013B002BA36009DA22460A213D
:10102000384600F09BF80130D6D00A20BDE8F081A8
:1010300023680A22591C21601A701046BDE8F0810D
:101040005C8700083C8700081C870008024B0146AB
:101050001868FFF78DBF00BF0000002000000000EF
:101060000000000000000000000000000000000080
:101070000000000000000000000000000000000070
:1010800090F800F06DE9024520F007016FF0000CC8
:1010900010F0070491F820F040F049804FF0000470
:1010A0006FF00700D1E9002391F840F000F108004B
:1010B00082FA4CF2A4FA8CF283FA4CF3A2FA8CF383
:1010C0004BBBD1E9022382FA4CF200F10800A4FAEA
:1010D0008CF283FA4CF3A2FA8CF3E3B9D1E904233E
:1010E00082FA4CF200F10800A4FA8CF283FA4CF375
:1010F000A2FA8CF37BB9D1E9062301F1200182FA2F
:101100004CF200F10800A4FA8CF283FA4CF3A2FA34
:101110008CF3002BC6D0002A04BF04301A4612BA42
:10112000B2FA82F2FDE8024500EBD2007047D1E945
:10113000002304F00305C4F100004FEAC50514F0D4
:10114000040F91F840F00CFA05F562EA05021CBFA5
:1011500063EA050362464FF00004A9E7F8B50D46BF
:101160001446064608B1836943B3254B9C422AD0F6
:10117000244B9C4229D0244B9C4208BFF468A3898D
:10118000A269A2601A0722D5236903B322686169A4
:10119000D31AEDB299422F4629DD0133A1680139F6
:1011A000A160511C2160157062699A4216D0A38912
:1011B000DB0701D50A2D11D03846F8BD01F0F6FA4B
:1011C0000F4B9C42D4D17468D9E7B468D7E7214665
:1011D000304600F027F838B92369D7E72146304672
:1011E00001F07EF90028E7D04FF0FF37E4E7214611
:1011F000304601F075F90028F6D122680123CDE7C9
:101200005C8700083C8700081C87000810B4044C69
:1012100003460A4620685DF8044B1946FFF79EBF57
:10122000000000203C4B70B51D6806460C460DB111
:10123000AB69E3B1394B9C421FD0394B9C424DD036
:10124000384B9C4208BFEC68B4F90C3018079AB2CE
:1012500019D5216911B312F001002FD00020A06030
:1012600060694042A06100292ED0002070BD284650
:1012700001F09CFA294B9C42DFD16C68B4F90C3028
:1012800018079AB2E5D4D1063ED5520728D4216971
:1012900043F00803A3819AB20029DCD102F4207044
:1012A000B0F5007FD7D02146304601F0EDFAB4F911
:1012B0000C3021699AB212F00100CFD1950758BFC6
:1012C0006069A0600029D0D1120658BF0846CDD56C
:1012D00043F04003A3814FF0FF3070BDAC68B3E72B
:1012E000616B51B104F14402914204D0304602F0E6
:1012F00043F9B4F90C300022626321690022C4E989
:10130000001223F02403C3E7092243F040033260B4
:101310004FF0FF30A38170BD000000205C87000803
:101320003C8700081C8700082DE9F04F03690C6911
:10133000A34283B0C0F28780013C01F11405A300F1
:1013400000F11408009355F8243058F82420013394
:1013500081469A4208EB840005EB84070190B2FBBA
:10136000F3F63BD30023AE4640469B465EF804AB03
:1013700002681FFA8AFC06FB0C334FEA134C4FEA53
:101380001A4A06FB0ACA1FFA83FCABEB0C0C1FFAC5
:101390008AF31CFA82FCC3EB124202EB2C421FFAC6
:1013A0008CFC4CEA0243774540F8043B4FEA224B61
:1013B0004FEA1A43DAD2009B58F8033073B9019B05
:1013C000043B984504D307E0984504F1FF3403D269
:1013D00053F80429002AF7D0C9F81040484601F014
:1013E0004FFE00282BDB01364046002355F8041B36
:1013F000D0F800C08AB29A1A0B0C12FA8CF2C3EB26
:101400001C4303EB224392B242EA0342AF4240F84C
:10141000042B4FEA2343E9D258F8242008EB840335
:101420006AB9043B984504D307E0984504F1FF34BA
:1014300003D253F80429002AF7D0C9F810403046E7
:1014400003B0BDE8F08F002003B0BDE8F08F00BF0F
:101450002DE9F04F2DED068B466A95B08DED020B10
:10146000249C019159EC108B054609920693002E9D
:1014700000F00683316849B172684A6001239340E5
:101480008B6001F035FB6B6A00221A60B9F1000A2B
:10149000B4BF0123002323607B4BBCBF2AF0004A6A
:1014A000CDF80CA033EA0A0300F0B2809DED027B78
:1014B000002251EC170BB0EE479AF0EE679A00232A
:1014C00003F0EAFB074680B1069A01231360259BCF
:1014D000002B00F0EF826D481860431E00930098C7
:1014E00015B0BDEC068BBDE8F08F12AA13A92846F3
:1014F000B0EE490AF0EE690A01F01AFFB0EE498A2F
:10150000F0EE698A5FEA1A56044640F09980DDE9F8
:1015100012763E4406F23240202840F3BF83C0F1E9
:1015200040000AFA00FA06F2124028FA00F04AEAED
:10153000000003F0CFF80123013E0D93A1F1F871F3
:10154000534B002202F088FF49A3D3E9002303F0A4
:101550003BF949A3D3E9002302F080FF80463046DF
:10156000894603F0C7F846A3D3E9002303F02CF91A
:1015700002460B464046494602F070FF80468946C7
:1015800003F0D2FB0022834600234046494603F085
:101590008DFB002840F08182BBF1160F00F26382C0
:1015A0003C4B03EBCB03D3E9002351EC190B03F0C5
:1015B0007DFB002874D00023BE1B0C93731E0BF11F
:1015C000FF3B049300F1568200230893BBF1000F08
:1015D0006DDA089BCDF814B0A3EB0B030893CBF1A5
:1015E00000030B93019B092B4FF0000B68D8052BD0
:1015F00040F35283043B01930026019B023B032BE3
:1016000000F2AC86DFE813F0650462045A043C047F
:10161000069A42F20F73CAF3130A13605AEA0803D8
:101620001DD1259B002B00F095861B4B00930833A2
:10163000259A0098136015B0BDEC068BBDE8F08FBD
:1016400018EE903AC3F3130351EC190B43F07F519A
:101650000D97A6F2FF36129F41F4401170E7259BCB
:10166000002B40F0F0830D4B009338E7AFF3008080
:1016700061436F63A787D23FB3C8608B288AC63F98
:10168000FB799F501344D33F0000F07F5D8A000830
:101690000000F83F90870008888A0008948A0008B4
:1016A000BE1B731E049300F1D9840C900890049B18
:1016B0005B44CDE9043B00230B93019B092B96D996
:1016C000002301264FF0FF3201930A9607920993F7
:1016D0006B6A00215960079B0F93284601F0C8F9F7
:1016E0000090002800F043866B6A009A1A60079BFE
:1016F0000E2B00F2F980002E00F0F68005990029EB
:1017000040F38084BD4B01F00F0203EBC2034FEAAC
:101710002118C905D3E9006740F11384B84B51EC97
:10172000190BD3E9082303F079F941EC180B08F001
:101730000F084FF0030AB8F1000F13D0DFF8C09282
:1017400018F0010F09D030463946D9E9002303F0DB
:101750003BF80AF1010A06460F465FEA680809F1FC
:101760000809EDD151EC180B32463B4603F056F90F
:1017700041EC1A0B0C9B5BB157EC1A6BA14B1AEEA8
:10178000100A0022394603F091FA002840F06C85D7
:10179000504602F0AFFF53EC1A2B03F015F89A4BAA
:1017A000002202F05BFE079B8046A1F15079002BDE
:1017B00000F00484059B1093079B0E930A9B002B5B
:1017C00000F0D6840E9A8D4B9049DDF800A003EB13
:1017D000C20353E90223002003F020F942464B469E
:1017E00002F03AFE59EC1A8B41EC180B49461AEEFE
:1017F000100A03F099FA074602F07CFF02460B46F6
:101800001AEE100A494602F027FE30370AF8017B2B
:1018100053EC182B06460F4603F048FA002840F018
:1018200067854FF000080AEE104A0AEE905ACDF88C
:1018300044B0554644465BEC18AB2AE00E9B01349D
:101840009C424BDA724B50465946002202F0BCFFD4
:101850006F4B002282468B463046394602F0B4FF79
:101860008946804603F060FA074602F043FF0246CD
:101870000B464046494602F0EFFD303705F8017B44
:1018800052465B4606460F4603F010FA002840F029
:101890002A8532463B465B49002002F0DDFD524678
:1018A0005B4603F003FA0028C8D0109B009A05930A
:1018B000AA461AEE104A1AEE905A02E0524500F07B
:1018C000FC84D1461AF8013D392BF7D00133DBB245
:1018D0008AF80030059B01330593BEE1DDF844B082
:1018E0001AEE104A1AEE905A139B002BC0F2948005
:1018F000059A0E2A00F39080404B03EBC203D3E914
:101900000089099B002B1BDA079B002B18DC40F099
:101910006E83404B00224046494602F055FF024686
:101920000B4651EC190B03F0CBF9DDF81CA0564621
:10193000002800F0E682099BDDF80080DF43E8E242
:1019400042464B4651EC190B03F068F803F0ECF9F2
:101950000646834602F0CEFE42464B4602F034FF76
:101960000B46024651EC190B02F076FDDDF800A0A3
:10197000334630330AF8013B079B012B00F09F836D
:101980004FF0010B08EE104A08EE905A54461D46DF
:10199000DA461DE042464B463046394603F03EF8F3
:1019A00003F0C2F9834602F0A5FE42464B4602F020
:1019B0000BFF0AF1010A0B4602463946304602F097
:1019C0004BFD0BF13003AA4504F8013B00F0728394
:1019D0000F4B002202F0F8FE0022002306460F46BD
:1019E00003F05AF90028D5D0A24618EE905A18EE06
:1019F000104A059B01330593D1462EE190870008DC
:101A0000808800080000F03F00001C400000E03F1C
:101A100000002440000014400A9A002A52D0019A83
:101A2000012A40F3A682079B03F1FF380B9B434535
:101A300080F284820B9BCDF82C80A8EB03039B449F
:101A40004FF00008079B002BC0F27183049A1A44E0
:101A50000492089A17461A4408920121284601F078
:101A600067F9064632E00123BE1B0C93731E0493F4
:101A70007FF5AAADC6F10103089300230493A5E501
:101A8000102000F08FFF02466862002800F05D849D
:101A9000C0E901660660C660F8E4584602F02AFE16
:101AA00042464B4603F0F8F800287FF475AD0BF181
:101AB000FF3B71E5874B0093009815B0BDEC068B9A
:101AC000BDE8F08FDDF82C80089F0A9E002F0CDD0A
:101AD000049A002A09DD0899BA421346A8BF3B467A
:101AE000C91AFF1AD31A089104930B9BDBB10A9B06
:101AF000002B00F08082B8F1000F0FDD3146424626
:101B0000284601F0D9F9224601460646284601F04A
:101B100025F921460446284600F0EAFF0B9BB3EB6B
:101B2000080240F0FE820121284601F001F9BBF1D4
:101B3000000F824600F3B780019B012B40F38881A0
:101B40004FF000080120BBF1000F40F0B880049A6C
:101B5000104410F01F0000F09680C0F12003042B09
:101B600040F30C84089BC0F11C000344024408931A
:101B700007440492089B002B05DD21461A4628469F
:101B800001F00AFA0446049B002B05DD51461A4673
:101B9000284601F001FA82460C9B002B40F0388168
:101BA000079B002B40F31F810A9B002B40F0A28073
:101BB000059B01330593DDF80080DDF81C900127BB
:101BC00007E0214600230A22284600F0B5FF01372E
:101BD000044651462046FFF7A7FB4F4500F1300071
:101BE00008F8010BEDDB079A002AC8BF9346009A5C
:101BF000D8BF4FF0010B0346934400272146012232
:101C00002846019301F0C8F95146044601F038FA1C
:101C1000002840F3A3811BF8013C009A0BF1FF3B25
:101C200004E05A4500F0B5811BF8013D392B0BF15A
:101C30000109F6D001338BF800305146284600F0F8
:101C400057FF56B12FB1B74203D03946284600F0AE
:101C50004FFF3146284600F04BFF2146284600F052
:101C600047FF002389F80030DDE905231A60259B32
:101C7000002B3FF434AC0098C3F8009015B0BDECD5
:101C8000068BBDE8F08F1C20089B03440893049B3F
:101C90000344074404936DE70126AEE4C0F120003D
:101CA00008FA00F045E401465A46284601F004F9D6
:101CB000019B012B824640F3D3814FF00008DAF8F4
:101CC00010300AEB8303186900F0E2FFC0F1200036
:101CD0003DE700BF5C8A0008314600230A222846FF
:101CE00000F02AFF0F9B002B064640F31F83CDF820
:101CF00014900793002F00F31A81B8F1000F40F001
:101D0000F981B046029B009F079903F001027B1EF8
:101D10001944019B0A9213430891099351462046A6
:101D2000FFF702FB31468346204601F0A9F94246FF
:101D300051468146284601F0C5F9C26801460BF1BB
:101D40003003002A42D104902046079301F098F90D
:101D500004990290284600F0CBFE029A079B1AB91C
:101D60000999002900F0D482B9F1000FC0F28481F2
:101D7000019949EA01090A9951EA090100F07C81B7
:101D8000002A00F3D881089A3B7007F101099742B5
:101D9000CB4600F0E381214600230A22284600F0CA
:101DA000CBFE4645044631464FF000034FF00A0291
:101DB000284612D000F0C0FE4146064600230A2203
:101DC000284600F0B9FE4F468046A7E72846029312
:101DD00000F08EFE029B0122C6E700F0ADFE4F46EA
:101DE000064680469AE7019B022B79DC0A9B002B72
:101DF00080D1059B5146013320460593FFF794FAA5
:101E0000DDF800B000F130030BF8013B0027F5E6E8
:101E10005146204601F034F90028BFF6C1AE2146F4
:101E200000230A22284600F087FE059B03F1FF39B4
:101E30000A9B0446002B7FF44FAF0F9B002B40F30F
:101E40006E820793B7E6BF4B00930333FFF7F0BBF7
:101E5000DDE9021200297FF473AEC2F31303002BF5
:101E60007FF46EAEB84B1340002B00F03A82089B13
:101E700001330893049B013304934FF0010861E69A
:101E800001230A93099B059A13440F930133012BF5
:101E900018460793B8BF01206F6A002117287960A0
:101EA0007FF71BAC012204235B0003F1140C844573
:101EB000114602F10102F7D979600EE401230A9379
:101EC0000998002845DD0F900790E5E700230A9365
:101ED000D8E700230A93F3E70F9BCDF814900793FC
:101EE000079B002B7FF427AD51460522284600F0C2
:101EF00023FE01468246204601F0C2F800287FF703
:101F00001AAD0098059F3123804600F8013B013748
:101F100000905146284600F0EBFD7B1CDDF8009058
:101F20000593CDF80080002E7FF493AE95E6314600
:101F30003A46284601F030F80646DEE6A3EB0808EC
:101F400080E54FF0020AB0EE498AF0EE698AFFF7A9
:101F5000F2BB012309930793FFF7BABB03D1019B9F
:101F6000DB073FF558AED9461BF8013D302BFAD0C0
:101F700063E60D9A002A00F0F78003F23343049AD7
:101F8000DDF82C801A440492089A17461A440892E5
:101F900063E5059B009A01330593312313704CE6EA
:101FA000504602F0A7FB53EC1A2B02F00DFC674BD6
:101FB000002202F053FA8046A1F15079644B0022CE
:101FC00051EC1A0B02F048FA42464B4606460F46C1
:101FD00002F08AFE002840F08081304639464246B1
:101FE00009F1004302F062FE00283FF47DAC4FF09F
:101FF000000A56469FE421460B9A284600F05CFFF3
:10200000044690E500F02881059A524B564206F0AE
:102010000F0203EBC203D3E9002351EC190B02F0CA
:10202000D3FB361141EC1A0B00F08B814A4F002391
:102030004FF0020AF20706D5D7E9002302F0C4FBED
:102040000AF1010A0123761007F10807F2D1002BEB
:102050003FF490AB41EC1A0BFFF78CBB0C9009E5F9
:10206000029B002B7FF429AEDDE90212C2F31303B9
:10207000002B3FF4F7AE20E6002A12DD21460122B4
:102080002846019300F088FF5146044600F0F8FF0F
:102090000028019B40F33681392B00F014810BF1AD
:1020A0003103B94609F8013B059B013337460593D7
:1020B0004646C2E5A24618EE905A18EE104A02466D
:1020C0000B4602F0CBF942464B4606460F4602F05D
:1020D0000BFE60B942464B463046394602F0DCFD05
:1020E00000283FF486AC5FEACB717FF582AC009AA2
:1020F000FFF7E7BB7168284600F0BAFC07460028E6
:1021000000F04181336902339A0006F10C010C3072
:10211000FEF7BEF839460122284600F03DFF804612
:10212000F0E52146284600F0C7FE0446FBE4DDE961
:1021300007239F1A91E4392B00F0C580B94601337B
:10214000B0E700BF948A00080000F07F00001C4048
:10215000000014409087000880880008059A01322A
:1021600037460592464649E5129BC3F1360306E71A
:102170000E988E4901EBC00142464B4651E90201DF
:1021800002F022FB5AEC1A9B41EC180B51461AEE56
:10219000100A02F0C9FD074602F0ACFA02460B46EF
:1021A0001AEE100A514602F057F906460E98DDF86D
:1021B00000803037012808F8017B0F4600F0BF800F
:1021C0000E9B009ACDF838B013449B46C246784B1C
:1021D00000223046394602F0F7FA8946804602F07E
:1021E000A3FD074602F086FA303702460B4640460A
:1021F000494602F031F90AF8017BDA4506460F46F6
:10220000E5D1DA46DDF838B06A4B59EC188B00227C
:1022100018EE100A494602F021F932463B4602F018
:1022200045FD002869D118EE102A4B46614900206F
:1022300002F012F932463B4602F056FD00283FF408
:1022400053ABD1460AF1FF3A19F8013C302BF8D0D4
:10225000109B0133059300E54FF0020AB0EE49AA46
:10226000F0EE69AAFFF786BA079B002B3FF498AE01
:102270000F9B002B7FF738AB059A0E93013A4C4B1E
:1022800010921AEE100A3946002202F09DFA024618
:1022900016460F460AF1010002F02CFA32463B4680
:1022A00002F092FA444B002202F0D8F847EC1A6B85
:1022B0008046A1F15079FFF781BA059B0133059360
:1022C0003123FFF705BB059BBB460133059339233B
:1022D00037460BF8013B46469FE44FF0000A56464E
:1022E0000FE698462EE4AA461AEE104A1AEE905AC5
:1022F000109B01330593D146AFE4109B009A0593E0
:10230000FFF7DFBA7FF4CDAEDA077FF5CAAEC3E6DA
:10231000392BD8D0B9F1000F3FF7C1AEC1E6019B10
:10232000022B3FF7D9ADCDF8149062E5019B022B4B
:102330003FF7D2AD0F9BCDF814900793DAE4C24675
:1023400062E74FF0020AFFF715BA1C4B1C48EA215E
:1023500001F0D2FB1B4B0093FFF7C1B86B6A00265C
:102360005E603146284600F083FB009090B9164B22
:10237000134800224FF4D57101F0BEFB3FF4FAABD5
:10238000C0F13C0080E4104B0D483A4640F2EA218F
:1023900001F0B2FB6B6A009A1A604FF0FF33012222
:1023A00009960F930A920793FFF79EBA9087000849
:1023B000000024400000E03F00001C40988A000814
:1023C000B08A0008888A0008E48A00088B891A0706
:1023D0002DE9F0410C4680463FD44A68002A58DD7A
:1023E000E66A002E52D00022D8F80050C8F800202B
:1023F00013F4805251D10123216A4046B047431C57
:102400005ED0A389E66A5F0705D56368C01A636B6F
:102410000BB1236CC01A216A024600234046B04724
:10242000411C3CD1D8F80030002B38D01D2B01D0F6
:10243000162B4DD123690022C4E90032616BC8F824
:10244000005019B304F14403994202D0404601F010
:1024500093F800206063BDE8F0810E69B6B10D68A5
:102460000E609A070CBF4B690023AD1B8B600BE01D
:102470002B463246216AA76A4046B847B0F1000CA5
:10248000A5EB0C05664413DD002DF1DC0020BDE852
:10249000F0810A6C002AA3DCF8E7606DB3E7002343
:1024A000636023692360A389DB04C7D56065C5E742
:1024B000A38943F040034FF0FF30A381BDE8F081D2
:1024C000D8F80030002B9CD01D2B06D0162B04D042
:1024D000A38943F04003A381D9E7C8F80050D5E7AA
:1024E00038B50B69BBB10D46044608B18369B3B179
:1024F0000D4B9D4211D00D4B9D4213D00C4B9D4274
:1025000008BFE568B5F90C302BB129462046BDE877
:102510003840FFF75BBF002038BD6568F2E700F088
:1025200045F9E5E7A568EDE75C8700083C8700080A
:102530001C87000838B540B303690446E3B1174B64
:102540001D680DB1AB69CBB1154B9C420FD0154B3B
:102550009C4221D0144B9C4208BFEC68B4F90C306B
:1025600053B121462846BDE83840FFF72FBF6C68BD
:10257000B4F90C30002BF4D1002038BD284600F00F
:1025800015F9074B9C42E2D1F1E7084B084918685E
:10259000BDE8384000F04AB9AC68DFE70000002031
:1025A0005C8700083C8700081C8700081887000823
:1025B000E124000800207047014900F037B900BF4E
:1025C000E12400080020704770B568224D1E02FB10
:1025D00005F50E4605F1740101F030F8044640B1EE
:1025E00000210C30C4E90016A06005F16802FDF777
:1025F000E9FE204670BD00BF274B2DE9F0411E6863
:10260000B369074653B348364FF00408D6E901349E
:10261000013B04D51EE05A1C04F168041AD0B4F939
:102620000C50013B002DF6D11C4B6566C4E90055EA
:10263000C4E90253C4E90455A5610822294604F1FE
:102640005C00FDF7BFFEC4E90D55C4E912552046F4
:10265000BDE8F08135682DB12E46D7E7304600F051
:102660001FF8D0E74FF4D671384600F0E7FF044674
:1026700068B10560C0F804800C302946A06025468A
:102680004FF4D072FDF79EFE34602E46BEE70C2359
:1026900030603B60DBE700BF188700080100FFFFE8
:1026A0002DE9F84F344B35491A68816290424FF05A
:1026B0000003C0E91233036504BF012383610546AB
:1026C000FFF79AFF68602846FFF796FFA860284644
:1026D000FFF792FF6F68E86000240423C7E9024314
:1026E00008222146C7E90044C7E904447C66BC616E
:1026F00007F15C00FDF766FEDFF88CB0AE68DFF82E
:102700008CA0DFF88C90DFF88C801D4BC7F828A0D8
:10271000C7E9087BC7F82C90C7F830800822F3601F
:10272000C6E90044C6E904447466B460B461214655
:1027300006F15C00FDF746FEC6E9086BC6E90AA98A
:10274000C6F83080EE680F4BF360C6E90044C6E976
:1027500004447466B460B4612146082206F15C004A
:10276000FDF730FE0123C6E9086BC6E90B98C6F8F1
:1027700028A0AB61BDE8F88F18870008B9250008CC
:1027800009000100120002003D3A0008653A000805
:10279000A53A0008C53A0008024B0349186800F042
:1027A00045B800BF18870008E1240008836903B911
:1027B00076E77047704700BF704700BF704700BFA3
:1027C000704700BF024B0349186800F00FB800BF04
:1027D00000000020B5250008024B0349186800F0EE
:1027E00005B800BF00000020C52500082DE9F04114
:1027F000884600F148070026D7E90154013D0FD46F
:10280000A389012B05F1FF3506D9B4F90E30013348
:10281000204601D0C04706436B1C04F16804EFD189
:102820003F68002FE8D13046BDE8F0812DE9F8433C
:102830000746884600F148064FF00009D6E90154E2
:10284000013D11D4A389012B05F1FF3508D9B4F955
:102850000E300133214603D03846C04749EA00090B
:102860006B1C04F16804EDD13668002EE6D14846B1
:10287000BDE8F883F03070470048704754010020ED
:102880000048704754010020F0B58B890C46990729
:1028900097B007D504F147030122C4E9043223604D
:1028A00017B0F0BDB4F90E10002905462DDB6A46BD
:1028B00001F07CF9002827DB019E06F470464FF4F6
:1028C0008067A6F50056B6FA86F639462846760998
:1028D00000F0B4FE30B3A3891A4AAA6243F0800321
:1028E000C4E90407A3812060002ED9D0B4F90E10EA
:1028F000284601F0E9FA0028D2D0A38923F0030387
:1029000043F00103A381CBE7A38913F0800F14BF29
:1029100040274FF4806739462846002600F08EFE97
:102920000028D8D1B4F90C309A05B9D423F00303A8
:1029300004F1470243F002030121C4E90421A38109
:102940002260ADE7B925000870B50C46B1F90E104C
:10295000002996B016461D4613DB6A4601F026F99B
:1029600000280EDB019901F47041A1F50051B1FA84
:1029700081F14FF48063490900202960336016B06B
:1029800070BDB4F90C3000221B062A6004D5402328
:102990000020336016B070BD4FF4806300203360B8
:1029A00016B070BD024B0146186800F047BE00BF6C
:1029B00000000020024B0146186800F0DDBD00BF9A
:1029C00000000020000000000000000000000000E7
:1029D00001F0FF01102A2BDB10F0070F08D010F8D0
:1029E000013B013A8B422DD010F0070F42B3F6D1D4
:1029F000F0B441EA012141EA014122F007047FF0ED
:102A000000070023F0E80256083C85EA010586EA43
:102A1000010685FA47F5A3FA87F586FA47F6A5FA7F
:102A200087F68EB9EED1F0BC01F0FF0102F007028B
:102A300032B110F8013B013A83EA010313B1F8D136
:102A40000020704701387047002D06BF3546033817
:102A5000073815F0010F07D1013015F4807F02BF50
:102A6000013015F4C03F0130F0BC0138704700BFA1
:102A700070B5466A05460C465EB1F368A3B153F8DB
:102A80002400E8B1026843F824200023C0E903339E
:102A900070BD1020FFF786FF06466862E8B100238C
:102AA000C0E901330360C36021220421284600F0FD
:102AB00055FD6B6AF060DB68002BE0D1002070BD33
:102AC000012101FA04F6721D9200284600F046FD2D
:102AD0000028F3D0C0E90146D7E7034B034832464C
:102AE000662101F009F800BF988A0008F88A0008FA
:102AF00070B5456A04460E464DB13EB1636A7268D0
:102B0000DB6853F82200306043F8226070BD10206B
:102B1000FFF748FF0246606220B1C0E90155056039
:102B2000C560EAE7024B03488A2100F0E5FF00BFD9
:102B3000988A0008F88A0008F0B50C69064683B048
:102B40000D4601F1140E0020DEF800101FFA81FC82
:102B500002FB0C334FEA134C090C02FB01CC013091
:102B60009BB203EB0C4384424EF8043B4FEA1C43F8
:102B7000EADC3BB1AA68A24207DD05EB840201341E
:102B800053612C61284603B0F0BD6968019301319F
:102B90003046FFF76DFF019B0746A0B12A690193FC
:102BA0000232920005F10C010C30FDF771FB294651
:102BB00030463D46FFF79CFF05EB8402019B5361C5
:102BC00001342C61DEE7034B03483A46B52100F09F
:102BD00093FF00BFE48A0008F88A00082DE9F84353
:102BE0000C4628491F46164603F1080281FB0231B4
:102BF000092F4FEAE2730546C3EB610339DD4FF05D
:102C0000010C00214FEA4C0C634501F10101F9DC94
:102C10002846FFF72DFF014668B3089B4361092E44
:102C20004FF00103036112DC0A340926B7420BDDC1
:102C3000BE1B264414F8013B0A22303B2846FFF70E
:102C40007BFFA6420146F5D10846BDE8F88304F1B2
:102C50000909C846344418F8013B0A22303B28468B
:102C6000FFF76AFFA0450146F5D1A6F108044C44E0
:102C7000DCE70021CCE70A46034B0448CE2100F0F4
:102C80003BFF00BF398EE338E48A0008F88A000869
:102C9000030C1B04D3B90004102310F07F4F04BFB2
:102CA0000002083310F0704F04BF0001043310F02D
:102CB000404F04BF80000233002805DB10F0804F36
:102CC00003F1010308BF2023184670470023E4E7FF
:102CD000036813F00702014607D0DA071FD49807EC
:102CE00021D55B080B600120704798B2A0B1104657
:102CF000DAB20AB908301B0A1A0704BF1B090430EC
:102D00009A0704BF9B080230DA0703D45B0800F17E
:102D1000010006D00B6070471B0C1020E8E7002074
:102D20007047202070479B080B600220704700BF4F
:102D300010B50C460121FFF79BFE024618B1012396
:102D4000C0E9043410BD034B03484FF4A07100F0F8
:102D5000D3FE00BFE48A0008F88A00082DE9F04F8E
:102D60000E691569AE4285B08846144605DB2A46D1
:102D7000234635460C4616469846A3686168AF1947
:102D8000BB42B8BF0131FFF773FE0190002800F08D
:102D90008780019B03F1140909EB870AD14505D20D
:102DA0004B46002243F8042B9A45FBD808F114083F
:102DB00008EB860B04F11403D8451A4603EB85058E
:102DC0005FD22B1B153B23F0030304331534A542BC
:102DD00038BF0423CDE902A7AC461F46924605E062
:102DE000000C29D1C34509F1040948D958F8040B4E
:102DF00085B2002DF4D056464C46002356F8040BFD
:102E0000216882B21FFA81FE05FB02EE000C0A0C5B
:102E1000734405FB002202EB13429BB243EA0243D8
:102E2000B44544F8043B4FEA1243E7D849F8073069
:102E300058F8040C000CD5D0D9F800305446194687
:102E40004D4600222688090C00FB06110A449BB25D
:102E500043EA024345F8043B54F8046B2968360CF6
:102E60008BB200FB063303EB1243A4454FEA134237
:102E7000E8D8C34549F8073009F10409B6D8DDE9B7
:102E800002A7002F02DC05E0013F03D05AF8043D01
:102E9000002BF9D0019B18461F6105B0BDE8F08FEB
:102EA000034B0448019A40F25D1100F025FE00BF7B
:102EB000E48A0008F88A00082DE9F04112F00303C3
:102EC00082B0144607462DD10E46A4101CD07A6A53
:102ED0008AB39568002D39D0E3074FF0000806D477
:102EE000641011D0286898B10546E307F8D531463B
:102EF0002A463846FFF732FF3146034638461E461B
:102F0000FFF7F6FD6410EDD1304602B0BDE8F08168
:102F10002A4629463846FFF721FF2860C0F800807E
:102F20000546E2E7013B184A52F823200023FFF749
:102F300003FE0646C9E71020FFF734FD024678621B
:102F4000E0B10023C0E901330360C36001213846CA
:102F50000192FFF78DFD019A054640B1012340F231
:102F60007121C0E90431002390600360B4E7074B8E
:102F700007482A464FF4A07100F0BEFD054B0448F7
:102F80004FF4D77100F0B8FD80870008E48A00088C
:102F9000F88A0008988A00082DE9F0470D46914606
:102FA0002F69AB68496807EB62177C1C9C4280461E
:102FB0004FEA621A04DD5B009C4201F10101FADC78
:102FC0004046FFF755FD064600284DD0BAF1000FE8
:102FD00000F114000EDD0AF105024FEA820C0346EF
:102FE00006EB8202002143F8041B9342FBD1ACF1B3
:102FF00014031844296905F1140319F01F0903EBA0
:10300000810129D0C9F1200E84464FF0000A1A68C8
:1030100002FA09F242EA0A024CF8042B53F8042B94
:10302000994222FA0EFAF2D84B1B153B23F0030308
:10303000043305F11502914238BF0423BAF1000FA1
:1030400018BF274640F803A0404637612946FFF7DE
:103050004FFD3046BDE8F087043853F8042B40F8A4
:10306000042F9942F9D8EFE7034B0448324640F267
:10307000D91100F041FD00BFE48A0008F88A000879
:103080000B6984460069C01A16D10CF1140C143176
:103090000CEB830210B401EB830301E0944508D2EA
:1030A00052F8044D53F8041D8C42F7D005D24FF06E
:1030B000FF305DF8044B7047704701205DF8044B0A
:1030C000704700BF2DE9F84F0F691369FF1A002FF1
:1030D0000E4690467AD101F11405143202EB8302B8
:1030E00005EB830301E09D4273D253F8041D52F8AF
:1030F000044DA142F7D064D37168FFF7B9FC814653
:10310000002872D03569D8F81020C76008F1140E75
:1031100006F1140009F1140A06F1100C0EEB8202FC
:1031200000EB8507564600215EF8044B5CF804BFAF
:10313000A3B211FA8BF1CB1A210CC1EB1B4101EBAD
:1031400023419BB243EA0143724546F8043B4FEAF0
:103150002141E9D8A2EB0804153C08F115084245C5
:1031600024F0030606F1040638BF0426304424F098
:10317000030238BF002287425244B24416D9564651
:10318000044654F8043B11FA83F10A1402EB13428B
:1031900089B241EA0243A74246F8043B4FEA224182
:1031A000EFD87A1E101A20F00302524423B952F8C5
:1031B000043D013D002BFAD0C9F810504846BDE847
:1031C000F88F334601274646984695E7F9DB0027F6
:1031D00092E70021FFF74CFC814668B101220023F1
:1031E000C9E904234846BDE8F88F074B07484A461B
:1031F0004FF4107100F080FC034B04484A4640F243
:10320000322100F079FC00BFE48A0008F88A000847
:1032100082B08DED000B154B019A1340A3F1507352
:10322000002B05DD0020194641EC100B02B0704761
:103230005B42B3F1A07F4FEA235208DA4FF4002338
:10324000002043FA02F141EC100B02B07047143A2F
:103250001E2ADABF4FF0004323FA02F201220021B6
:10326000104641EC100B02B0704700BF0000F07F29
:10327000F8B5046900F1140606EB8404271F54F81E
:10328000045C2846FFF704FDC0F120030A280B6008
:1032900031DDBE421BD20B3854F8081C23D0C0F1DC
:1032A000200C854021FA0CF72F43A4F1080547F0C4
:1032B0007F53AE4243F4401336D2814054F80C0C95
:1032C00020FA0CF00843024643EC102BF8BD0B38F3
:1032D00008D005FA00F040F07F53002043F440137B
:1032E0000246F1E7014645F07F5343F440130A4696
:1032F00043EC102BF8BDC0F10B0C25FA0CF1BE42CB
:1033000041F07F5338BF54F8081C00F1150034BF5A
:1033100021FA0CF1002105FA00F043F4401340EAD1
:10332000010243EC102BF8BD01FA00F00246CBE796
:103330002DE9F043884683B0012157EC106B154608
:10334000FFF796FB044600284FD0C7F30A59C7F38E
:103350001303B9F1000F01D043F48013002E019341
:1033600024D068460096FFF7B3FC002839D0DDE989
:103370000013C0F1200203FA02F20A43C340626163
:103380000193002B14BF02220122A3612261B9F133
:10339000000F16D0A9F233430344C0F13500C8F83A
:1033A00000302860204603B0BDE8F08301A8FFF795
:1033B0008FFC019B6361012220302261B9F1000F73
:1033C000E8D104EB8203A0F23240C8F8000018698B
:1033D000FFF75EFCC0EB42102860204603B0BDE85A
:1033E000F083009B6361019BCBE7034B03482246BC
:1033F00040F20A3100F080FBE48A0008F88A0008F5
:103400002DE9F04383B00E4669460746FFF730FFCB
:1034100001A9304655EC104BFFF72AFF3B69316993
:10342000591ADDE90023D31A03EB4113002B51ECA9
:10343000100B0DDD05EB03594D4602460B462046A9
:10344000294601F0EBFA41EC100B03B0BDE8F08324
:10345000C3EB033301EB03573946EEE7172870B58A
:1034600006460CDD0A490B4D0020002422462B465F
:1034700001F0AAF9013EF9D141EC100B70BD064BE9
:1034800003EBC006D6E9040141EC100B70BD00BF90
:103490000000F03F000024408087000801394911F6
:1034A00001F1010C116902F1140303EB81018B425C
:1034B00000EB8C0C16D210B5A0F1040E53F8044B9F
:1034C0004EF8044F9942F9D88B1A153B23F00303A9
:1034D00004331844844504D9002340F8043B844550
:1034E000FBD810BD844505D9002340F8043B844532
:1034F000FBD87047704700BF03694A11934200F13F
:10350000140009DA00EB830302E053F8042DCAB972
:103510008342FAD80020704711DD11F01F010ED050
:1035200010B450F8224000EB820324FA01F202FAB0
:1035300001F18C420CD001205DF8044B704700EB88
:103540008203E5E70120704753F8042D002AF2D1E9
:103550008342F9D800205DF8044B704738B502FB70
:1035600001F5294600F06AF8044618B12A46002100
:10357000FCF728FF204638BD002958D030B551F857
:10358000043C83B0002BA1F10404B8BFE4180190FF
:1035900000F05EFD284A0198136833B1A3420DD9AB
:1035A000216804EB010C63452FD06360146003B005
:1035B000BDE8304000F04EBDA34210D81A465B680B
:1035C000002BF9D1116802EB010C644519D02FD3FF
:1035D0006360546003B0BDE8304000F03BBD11684B
:1035E00002EB010CA44516D022D8216804EB010C93
:1035F0006345EDD11D685B682944C4E9001354603C
:10360000D5E7236819441160D1E71D685B68294438
:10361000C4E90013CAE7246821445418A342116086
:10362000C5D1D3E900432144C2E90013BFE7704785
:103630000C230360BBE700BFFC010020F8B5CD1CE4
:1036400025F0030508350C2D38BF0C25002D064646
:1036500023DBA94221D8254F00F0FAFC3A6822B3B7
:10366000144603E063682246FBB11C4623685B1BDB
:10367000F8D40B2B15D8636894420CBF3B605360A1
:10368000304600F0E7FC04F10B00231D20F007009A
:10369000C21A01D01B1AA350F8BD0C2333600020BE
:1036A000F8BD23601C442560EAE77968C9B1294662
:1036B000304600F0B1F9431C0CD0C41C24F00304C4
:1036C000A04205D0211A304600F0A6F9013001D001
:1036D0002560D5E70C233046336000F0BBFC0020AA
:1036E000F8BD304600F098F97860E0E7FC01002072
:1036F0009368013B002B936011DA10B49469A342E4
:1037000009DB0A2907D01368581C10601970084695
:103710005DF8044B70475DF8044BFDF71FBD13685F
:10372000581C106019700846704700BF9BB1F8B56F
:10373000134406460F46541E5D1E01E0AC4208D0FD
:1037400014F8011F3A463046FFF7D2FF431CF5D16B
:10375000F8BD0020F8BD0020704700BF936810B589
:10376000144613B95360184610BD00F035FA002313
:10377000C4E9013310BD00BF2DE9F04F88469FB06A
:1037800015461C46814618B18369002B00F0A280C3
:10379000924B984500F0A480914B984500F0B18081
:1037A000904B984508BFD9F80C80B8F80C30180732
:1037B00040F19D80D8F81030002B00F09880002355
:1037C0000B932978884E059420238DF831303023CF
:1037D0008DF832300127002974D02C460B4604E0C6
:1037E00014F8013F002B00F08F80252BF8D1B4EBAB
:1037F000050B40F08C802378002B63D000234FF022
:10380000FF32CDE90723069309938DF85B301C93B3
:10381000013404E0069A07FA03F31343069325469E
:10382000052214F8011B3046FFF7D2F8831B00284D
:10383000F0D1069BD90644BF20228DF85B20297861
:103840001A0744BF2B228DF85B202A2970D1059AD4
:103850001168043200290592C0F29B8009916978B1
:1038600001352E2976D0614C03222046FFF7B0F8AF
:1038700038B1069B001B402404FA00F00343069372
:10388000013515F8011B5A488DF830100622FFF754
:103890009FF8002800F08380564B002B6DD005AABE
:1038A0000092554B424606A94846FCF7A9FE0390F4
:1038B000039B013306D00B9B039A297813440B9387
:1038C00000298AD1B8F80C305B0617D40B981FB0CA
:1038D000BDE8F08FFEF76AFF404B98457FF45CAF80
:1038E000D9F80480B8F80C3018073FF563AF4146AB
:1038F0004846FDF797FC00283FF461AF4FF0FF30DA
:10390000E5E7D9F8088050E7B4EB050BDAD0AA4612
:10391000C5F1010503E0934536D91AF8011F424667
:103920004846FFF7E5FE013005EB0A02F3D1C9E78F
:10393000A1F13002092A94D8099B15F8011F03EB65
:10394000830302EB4303A1F13002092AF5D92E29A2
:10395000099388D169782A292BD1059BA9781A68FF
:1039600007920433002A05F102000593B8BF4FF017
:10397000FF330546B8BF079375E7059B073323F070
:1039800007030833059396E70B9A23785A440B9262
:1039900032E7494243F00203099106935FE705AA23
:1039A0000092154B424606A94846FDF759F9039087
:1039B0007EE7A1F130020023092A079305F10105F2
:1039C0003FF651AF15F8011F03EB830302EB4303EE
:1039D000A1F13002092AF5D9079344E75C87000872
:1039E0003C8700081C8700082C8B0008348B0008DB
:1039F000388B0008010600082D37000810B4054C6C
:103A00008446134620685DF8044B0A466146FFF77A
:103A1000B3BE00BF0000002038B5074D00220446A9
:103A200008462A6000F004FD431C00D038BD2B6816
:103A3000002BFBD0236038BD0402002010B50C46DB
:103A4000B1F90E1000F030FB002803DB636D034476
:103A5000636510BDA38923F48053A38110BD00BF0B
:103A6000002070472DE9F0410C46B1F90C101F46BB
:103A7000CB05054616460BD421F48051A1813B4667
:103A8000B4F90E1032462846BDE8F04100F01EB8E9
:103A9000B4F90E100223002200F028FAB4F90C1039
:103AA000EAE700BF10B50C46B1F90E1000F01EFA9F
:103AB000A389421C0EBF23F4805343F480536065F6
:103AC000A38110BDB1F90E1000F03CB838B50C461A
:103AD000084D8446114620461A4600232B60644652
:103AE00003F0CAFB431C00D038BD2B68002BFBD071
:103AF000236038BD0402002000B50B4C2568144635
:103B0000EE681A4685B003460D464CB1074900954C
:103B1000CDE901143046064900F034F800F0F2FA1D
:103B200004490C46F3E700BF00000020408B00086A
:103B3000508B0008488A000808B513460022FFF79A
:103B4000DBFF00BF38B5074D0022044608462A6057
:103B500000F036FC431C00D038BD2B68002BFBD096
:103B6000236038BD040200200CB400B583B004AB60
:103B700053F8042B0193FFF7FFFD03B05DF804EB4E
:103B800002B070470EB410B583B005AB064C53F8C5
:103B9000042B019301462068FFF7EEFD03B0BDE85A
:103BA000104003B0704700BF0000002070B50C4605
:103BB000084D03460026204611461C462E6000F0A4
:103BC00007FC431C00D070BD2B68002BFBD023608A
:103BD00070BD00BF040200209368002B00F08580B8
:103BE0002DE9F04FB1F90C300C461907804683B02F
:103BF000174698B225D523691BB310F002033D6820
:103C00002DD04FF0000ADFF8BCB25646B9465E45EB
:103C10003346524628BF5B464046002E52D0216AAA
:103C2000A76AB847002856DDD9F808301B1A824425
:103C3000361AC9F80830002BE9D1002003B0BDE8DE
:103C4000F08F21464046FDF7EDFA002840F036811E
:103C5000B4F90C303D6898B210F00203D1D110F0E5
:103C6000010944D14E46009746B38205D4F808B006
:103C700040F18380B3455A4600F2B28010F4906F51
:103C800040F0BF8020680192494600F065F9A368C2
:103C9000019AA3EB0B012368A1601344B246236091
:103CA0000026009B9868A0EB0A00D1449860002889
:103CB000C3D0B4F90C0080B2002ED6D1D5E900965D
:103CC0000835D1E7D5E900A60835A0E721464046EA
:103CD000FEF706FC80B3B4F90C3043F040034FF01C
:103CE000FF30A38103B0BDE8F08F002070471E466F
:103CF000AA46994618461D46009756B388B34A46C9
:103D0000D4E904132068B24228BF3246884205D95C
:103D1000A16803EB010B5A4500F3A680934263DCD4
:103D2000216AA76A2A464046B847B0F1000BD2DDA7
:103D3000B9EB0B09CAD00120009A9368A3EB0B03DF
:103D40005D44A6EB0B069360002B3FF476AF002E8C
:103D5000D4D10AF1080353E902569A460833002EDB
:103D6000F9D032460A212846FEF732FE002800F03C
:103D70009C800130A0EB0509C1E7206823699842C7
:103D800016D86369B34213D86FF00042B24228BF1D
:103D90003246216A92FBF3F2A76A02FB03F3404624
:103DA0004A46B847B0F1000A95DDA6EB0A0678E767
:103DB000B345DA4628BFB2465246494600F0CCF831
:103DC000A3682268A3EB0A035244A3602260002B7D
:103DD000EBD121464046FEF783FB0028E5D07AE789
:103DE0002068B34632464EE72946019200F0B4F807
:103DF000019AA3689B1AA360236813442360934627
:103E000096E723682169A3EB010B636903EB430A7F
:103E10000AEBDA7A0BF101034FEA6A0A334453459D
:103E2000524684BF9A46524643052CD51146404619
:103E3000FFF704FC00283BD05A4621690190FCF7AB
:103E400027FAA289019B22F4906242F08002A281AB
:103E500003EB0B002361AAEB0B03C4F814A0A360CF
:103E60002060B34632460EE729465A4600F074F801
:103E700023685B44236021464046FEF731FB00285F
:103E80003FF456AF27E7404600F0E6F80346002827
:103E9000DED121694046FFF76FFBB4F90C300C22EC
:103EA00023F08003C8F8002017E7721C914627E72B
:103EB0000C22B4F90C30C8F800200EE74FF0FF30A8
:103EC000BCE600BF00FCFF7F38B5074D002204466A
:103ED00008462A6000F08CFA431C00D038BD2B68DD
:103EE000002BFBD0236038BD0402002038B50C46FF
:103EF000084D8446114620461A4600232B6064462E
:103F000000F086FA431C00D038BD2B68002BFBD094
:103F1000236038BD0402002010B4034CD4F8E44000
:103F2000A4465DF8044B60476400002082B049B1AC
:103F30005AB16BB113780B601278101E18BF0120B4
:103F400002B0704701A9002AF3D1104602B07047B1
:103F50006FF00100F4E700BF88420DD98B1883424F
:103F60000AD900EB020CBAB1624613F801CD02F88F
:103F700001CD9942F9D170470F2A0ED8034602F1BC
:103F8000FF3C4AB10CF1010C013B8C4411F8012BB0
:103F900003F8012F6145F9D1704740EA01039B07FF
:103FA00050D1A2F1100370B501F1200C23F00F05E0
:103FB00001F1100E00F11004AC441B095EF8105C16
:103FC00044F8105C5EF80C5C44F80C5C5EF8085C2D
:103FD00044F8085C5EF8045C44F8045C0EF1100ED2
:103FE000E64504F11004E9D1013312F00C0F01EBA6
:103FF000031102F00F0400EB031327D0043C24F05C
:1040000003064FEA940C1E441C1F8E465EF8045BA8
:1040100044F8045FB442F9D10CF1010402F0030248
:1040200003EB840301EB840102F1FF3C4AB10CF184
:10403000010C013B8C4411F8012B03F8012F614561
:10404000F9D170BD02F1FF3C03469BE72246EBE746
:10405000704700BF704700BFF8B51446F9B1CAB148
:1040600006460D4600F056F8A04202D32F463846C9
:10407000F8BD21463046FFF7E1FA07460028F6D0A2
:1040800022462946FCF704F930462946FFF774FA20
:104090003846F8BD2746FFF76FFA3846F8BDBDE849
:1040A000F8401146FFF7CABA38B50C46084D8446A9
:1040B000114620461A4600232B60644600F0B0F9F2
:1040C000431C00D038BD2B68002BFBD0236038BDCB
:1040D0000402002010B4034CD4F8E040A4465DF87C
:1040E000044B60476400002049B1FF2A02D80A70DF
:1040F000012070478A2303604FF0FF307047084665
:10410000704700BF08B5062000F0A2F8012000F0BB
:104110009DF900BF51F8040C0028A0F10400BCBFB9
:104120000B58C018704700BF38B5446C0CB1002064
:1041300038BD80210546FFF781FA0246686430B138
:10414000031F7C3243F8044F9342FBD1EFE74FF05B
:10415000FF3038BD1F29F8B5054608D8466C0C4617
:1041600017464EB156F8240046F82470F8BD1623C1
:1041700003604FF0FF30F8BD8021FFF75FFA06467D
:10418000686440B1031F00F17C05002143F8041F5F
:104190009D42FBD1E6E74FF0FF30F8BD1F2938B54F
:1041A000054620D8426C0C466AB152F8213053B112
:1041B000012B16D0591C10D00025204642F824505F
:1041C0009847284638BD284600F0F8F822460146B0
:1041D0002846BDE8384000F0DBB816230360012014
:1041E00038BD002038BD162303604FF0FF3038BDC6
:1041F0001F292AD8426C38B50C46054682B152F8C0
:10420000243002EB84024BB1591C19D0012B15D07C
:104210000025204615609847284638BD012038BD46
:104220008021FFF70BFA0246686458B1031F002192
:104230007C3043F8041F9842FBD1E0E7032038BDEF
:10424000022038BD4FF0FF3038BD4FF0FF307047CF
:1042500038B5144B1F281D681FD86A6C044662B11C
:1042600052F820304BB1012B15D0591C0FD000252E
:1042700042F820509847284638BD284600F09EF85E
:10428000224601462846BDE8384000F081B8162392
:104290002B60012038BD002038BD16232B604FF065
:1042A000FF3038BD00000020124B1F2870B51E687B
:1042B00008D80D46716C044649B151F8240041F804
:1042C000245070BD162333604FF0FF3070BD802145
:1042D0003046FFF7B3F90146706440B1031F00F1A7
:1042E0007C0C002243F8042F6345FBD1E5E74FF037
:1042F000FF3070BD0000002038B50B4B1D686C6CA2
:104300000CB1002038BD80212846FFF797F968647A
:1043100038B1031F00F17C0243F8044F9342FBD1F4
:10432000EFE74FF0FF3038BD0000002038B5174BE5
:104330001F281D6826D86A6C044682B152F82430C2
:1043400002EB84024BB1591C1AD0012B16D0002568
:10435000204615609847284638BD012038BD802189
:104360002846FFF76BF90246686458B1031F002125
:104370007C3043F8041F8342FBD1DFE7032038BDC4
:10438000022038BD4FF0FF3038BD00BF00000020D4
:1043900070B50C46084D03460026204611461C46C3
:1043A0002E6000F02DF8431C00D070BD2B68002B50
:1043B000FBD0236070BD00BF0402002000F010B8E5
:1043C000024B58221A604FF0FF3070470402002061
:1043D000024B58221A604FF0FF3070470402002051
:1043E000024B58221A604FF0FF3070470402002041
:1043F000024B58221A600020704700BF04020020C0
:10440000024B58221A604FF0FF3070470402002020
:10441000024B58221A604FF0FF3070470402002010
:10442000024B58221A604FF0FF3070470402002000
:10443000044A05491368002B08BF0B461844106056
:104440001846704708020020E0BB0020FEE700BFCE
:1044500081F0004102E000BF83F0004330B54FEA35
:1044600041044FEA430594EA050F08BF90EA020FA2
:104470001FBF54EA000C55EA020C7FEA645C7FEA35
:10448000655C00F0E2804FEA5454D4EB5555B8BF58
:104490006D420CDD2C4480EA020281EA030382EAC9
:1044A000000083EA010180EA020281EA0303362D5B
:1044B00088BF30BD11F0004F4FEA01314FF4801C2E
:1044C0004CEA113102D0404261EB410113F0004F40
:1044D0004FEA03334CEA133302D0524263EB4303F7
:1044E00094EA050F00F0A780A4F10104D5F1200E95
:1044F0000DDB02FA0EFC22FA05F2801841F10001F0
:1045000003FA0EF2801843FA05F359410EE0A5F1C3
:1045100020050EF1200E012A03FA0EFC28BF4CF0F4
:10452000020C43FA05F3C01851EBE37101F00045AA
:1045300007D54FF0000EDCF1000C7EEB00006EEBB7
:104540000101B1F5801F1BD3B1F5001F0CD3490841
:104550005FEA30004FEA3C0C04F101044FEA445298
:1045600012F5800F80F09A80BCF1004F08BF5FEA1F
:10457000500C50F1000041EB045141EA050130BDFF
:104580005FEA4C0C404141EB0101013C28BFB1F511
:10459000801FE9D291F0000F04BF01460020B1FA5C
:1045A00081F308BF2033A3F10B03B3F120020CDA2F
:1045B0000C3208DD02F1140CC2F10C0201FA0CF00D
:1045C00021FA02F10CE002F11402D8BFC2F1200C72
:1045D00001FA02F120FA0CFCDCBF41EA0C01904028
:1045E000E41AA2BF01EB0451294330BD6FEA040471
:1045F0001F3C1CDA0C340EDC04F11404C4F120025C
:1046000020FA04F001FA02F340EA030021FA04F36D
:1046100045EA030130BDC4F10C04C4F1200220FAC4
:1046200002F001FA04F340EA0300294630BD21FA02
:1046300004F0294630BD94F0000F83F4801306BFC8
:1046400081F480110134013D4EE77FEA645C18BFBC
:104650007FEA655C29D094EA050F08BF90EA020F53
:1046600005D054EA000C04BF1946104630BD91EA4B
:10467000030F1EBF0021002030BD5FEA545C05D14E
:104680004000494128BF41F0004130BD14F580048D
:104690003CBF01F5801130BD01F0004545F0FE4101
:1046A00041F470014FF0000030BD7FEA645C1ABF36
:1046B000194610467FEA655C1CBF0B46024650EA6D
:1046C000013406BF52EA033591EA030F41F4002199
:1046D00030BD00BF90F0000F04BF0021704730B51F
:1046E0004FF4806404F132044FF000054FF00001F4
:1046F00050E700BF90F0000F04BF0021704730B5B5
:104700004FF4806404F1320410F0004548BF404289
:104710004FF000013EE700BF42004FEAE2014FEADE
:1047200031014FEA02701FBF12F07F4393F07F4FB9
:1047300081F06051704732F07F4208BF704793F0BC
:104740007F4F04BF41F40021704730B54FF46074CF
:1047500001F0004521F000411CE700BF50EA0102D2
:1047600008BF704730B54FF000050AE050EA01027B
:1047700008BF704730B511F0004502D5404261EBEB
:1047800041014FF4806404F132045FEA915C3FF42C
:10479000D8AE4FF003025FEADC0C18BF03325FEAC9
:1047A000DC0C18BF033202EBDC02C2F1200300FA7A
:1047B00003FC20FA02F001FA03FE40EA0E0021FA9F
:1047C00002F11444BDE600BF70B54FF0FF0C4CF48D
:1047D000E06C1CEA11541DBF1CEA135594EA0C0F3F
:1047E00095EA0C0F00F0DEF82C4481EA030621EA7A
:1047F0004C5123EA4C5350EA013518BF52EA0335B5
:1048000041F4801143F4801338D0A0FB02CE4FF066
:104810000005E1FB02E506F00042E0FB03E54FF096
:104820000006E1FB03569CF0000F18BF4EF0010E8E
:10483000A4F1FF04B6F5007F64F5407404D25FEA8A
:104840004E0E6D4146EB060642EAC62141EA55513D
:104850004FEAC52040EA5E504FEACE2EB4F1FD0C7F
:1048600088BFBCF5E06F1ED8BEF1004F08BF5FEAFD
:10487000500E50F1000041EB045170BD06F00046AF
:1048800046EA010140EA020081EA0301B4EB5C045C
:10489000C2BFD4EB0C0541EA045170BD41F4801154
:1048A0004FF0000E013C00F3AB8014F1360FDEBF79
:1048B000002001F0004170BDC4F10004203C35DA55
:1048C0000C341BDC04F11404C4F1200500FA05F3D8
:1048D00020FA04F001FA05F240EA020001F0004279
:1048E00021F0004110EBD37021FA04F642EB0601EF
:1048F0005EEA430E08BF20EAD37070BDC4F10C0419
:10490000C4F1200500FA04F320FA05F001FA04F2DC
:1049100040EA020001F0004110EBD37041F10001C8
:104920005EEA430E08BF20EAD37070BDC4F12005D3
:1049300000FA05F24EEA020E20FA04F301FA05F23B
:1049400043EA020321FA04F001F0004121FA04F2E3
:1049500020EA020000EBD3705EEA430E08BF20EAB3
:10496000D37070BD94F0000F0FD101F000464000ED
:1049700041EB010111F4801F08BF013CF7D041EA6F
:10498000060195F0000F18BF704703F00046520073
:1049900043EB030313F4801F08BF013DF7D043EA44
:1049A0000603704794EA0C0F0CEA135518BF95EAFA
:1049B0000C0F0CD050EA410618BF52EA4306D1D181
:1049C00081EA030101F000414FF0000070BD50EAA0
:1049D000410606BF1046194652EA430619D094EA2A
:1049E0000C0F02D150EA013613D195EA0C0F05D114
:1049F00052EA03361CBF104619460AD181EA030168
:104A000001F0004141F0FE4141F470014FF000001F
:104A100070BD41F0FE4141F4780170BD70B54FF0BA
:104A2000FF0C4CF4E06C1CEA11541DBF1CEA13553A
:104A300094EA0C0F95EA0C0F00F0A7F8A4EB05041C
:104A400081EA030E52EA03354FEA013100F0888013
:104A50004FEA03334FF0805545EA131343EA1263DC
:104A60004FEA022245EA111545EA10654FEA002691
:104A70000EF000419D4208BF964244F1FD0404F54A
:104A8000407402D25B084FEA3202B61A65EB0305A6
:104A90005B084FEA32024FF480104FF4002CB6EB63
:104AA000020E75EB030E22BFB61A754640EA0C00E3
:104AB0005B084FEA3202B6EB020E75EB030E22BF23
:104AC000B61A754640EA5C005B084FEA3202B6EB64
:104AD000020E75EB030E22BFB61A754640EA9C0023
:104AE0005B084FEA3202B6EB020E75EB030E22BFF3
:104AF000B61A754640EADC0055EA060E18D04FEAB1
:104B0000051545EA16754FEA06164FEAC30343EA50
:104B100052734FEAC2025FEA1C1CC0D111F4801F1D
:104B20000BD141EA00014FF000004FF0004CB6E716
:104B300011F4801F04BF01430020B4F1FD0C88BFB5
:104B4000BCF5E06F3FF6AFAEB5EB030C04BFB6EBC0
:104B5000020C5FEA500C50F1000041EB045170BDB3
:104B60000EF0004E4EEA113114EB5C04C2BFD4EBE0
:104B70000C0541EA045170BD41F480114FF0000E64
:104B8000013C90E645EA060E8DE60CEA135594EAE0
:104B90000C0F08BF95EA0C0F3FF43BAF94EA0C0FE3
:104BA0000AD150EA01347FF434AF95EA0C0F7FF458
:104BB00025AF104619462CE795EA0C0F06D152EAAC
:104BC00003353FF4FDAE1046194622E750EA410690
:104BD00018BF52EA43067FF4C5AE50EA41047FF4A1
:104BE0000DAF52EA43057FF4EBAE12E74FF0FF3C06
:104BF00006E000BF4FF0010C02E000BF4FF0010CD7
:104C00004DF804CD4FEA410C7FEA6C5C4FEA430C4F
:104C100018BF7FEA6C5C1BD001B050EA410C0CBF9E
:104C200052EA430C91EA030F02BF90EA020F002000
:104C3000704710F1000F91EA030F58BF994208BF67
:104C400090422CBFD8176FEAE37040F00100704724
:104C50004FEA410C7FEA6C5C02D150EA013C07D17B
:104C60004FEA430C7FEA6C5CD6D152EA033CD3D0C6
:104C70005DF8040B704700BF8446104662468C46C0
:104C80001946634600E000BF01B5FFF7B7FF0028F3
:104C900048BF10F1000F01BD4DF808EDFFF7F4FF1C
:104CA0000CBF012000205DF808FB00BF4DF808EDA7
:104CB000FFF7EAFF34BF012000205DF808FB00BFCA
:104CC0004DF808EDFFF7E0FF94BF012000205DF8EC
:104CD00008FB00BF4DF808EDFFF7CEFF94BF0120A1
:104CE00000205DF808FB00BF4DF808EDFFF7C4FF9A
:104CF00034BF012000205DF808FB00BF4FEA410CE3
:104D00007FEA6C5C02D150EA013C0AD14FEA430CC5
:104D10007FEA6C5C02D152EA033C02D14FF0000002
:104D200070474FF0010070474FEA410212F5001240
:104D300015D211D56FF47873B3EB625212D94FEAE2
:104D4000C12343F0004343EA505311F0004F23FACC
:104D500002F018BF404270474FF00000704750EA21
:104D6000013005D111F0004008BF6FF000407047DE
:104D70004FF00000704700BF4FEA4102B2F1E0433C
:104D800024BFB3F5001CDCF1FE5C0DD901F0004C32
:104D90004FEAC0024CEA5070B2F1004F40EB830082
:104DA00008BF20F00100704711F0804F21D113F1AE
:104DB0003872BCBF01F00040704741F480114FEAE7
:104DC0005252C2F11802C2F1200C10FA0CF320FA70
:104DD00002F018BF40F001004FEAC1234FEAD3238D
:104DE00003FA0CFC40EA0C0023FA02F34FEA4303F7
:104DF000CCE77FEA625307D150EA01331EBF4FF080
:104E0000FE4040F44000704701F0004040F0FE409A
:104E100040F40000704700BF53B94AB9002908BFE9
:104E200000281CBF4FF0FF314FF0FF3000F074B985
:104E3000ADF1080C6DE904CE00F006F8DDF804E0F1
:104E4000DDE9022304B070472DE9F047089D0446D0
:104E50008E46002B4DD18A42944669D9B2FA82F22D
:104E600052B101FA02F3C2F1200120FA01F10CFA69
:104E700002FC41EA030E94404FEA1C48210CBEFBA1
:104E8000F8F61FFA8CF708FB16E341EA034306FB2A
:104E900007F199420AD91CEB030306F1FF3080F0B9
:104EA0001F81994240F21C81023E63445B1AA4B206
:104EB000B3FBF8F008FB103344EA034400FB07F7A8
:104EC000A7420AD91CEB040400F1FF3380F00A81E9
:104ED000A74240F207816444023840EA0640E41BDE
:104EE00000261DB1D4400023C5E900433146BDE88A
:104EF000F0878B4209D9002D00F0EF800026C5E92C
:104F0000000130463146BDE8F087B3FA83F6002E43
:104F10004AD18B4202D3824200F2F980841A61EBBB
:104F2000030301209E46002DE0D0C5E9004EDDE7D9
:104F300002B9FFDEB2FA82F2002A40F09280A1EBC1
:104F40000C014FEA1C471FFA8CFE0126200CB1FB16
:104F5000F7F307FB131140EA01410EFB03F088420F
:104F600008D91CEB010103F1FF3802D2884200F29C
:104F7000CB804346091AA4B2B1FBF7F007FB10112E
:104F800044EA01440EFB00FEA64508D91CEB0404CC
:104F900000F1FF3102D2A64500F2BB800846A4EB27
:104FA0000E0440EA03409CE7C6F12007B34022FA12
:104FB00007FC4CEA030C20FA07F401FA06F31C4341
:104FC000F9404FEA1C4900FA06F3B1FBF9F8200C4E
:104FD0001FFA8CFE09FB181140EA014108FB0EF094
:104FE000884202FA06F20BD91CEB010108F1FF3AE4
:104FF00080F08880884240F28580A8F102086144F0
:10500000091AA4B2B1FBF9F009FB101144EA0141FD
:1050100000FB0EFE8E4508D91CEB010100F1FF34A8
:105020006CD28E456AD90238614440EA0840A0FB40
:105030000294A1EB0E01A142C846A64656D353D016
:105040005DB1B3EB080261EB0E0101FA07F722FA3A
:1050500006F3F1401F43C5E9007100263146BDE863
:10506000F087C2F12003D8400CFA02FC21FA03F3C6
:10507000914001434FEA1C471FFA8CFEB3FBF7F047
:1050800007FB10360B0C43EA064300FB0EF69E426C
:1050900004FA02F408D91CEB030300F1FF382FD205
:1050A0009E422DD9023863449B1B89B2B3FBF7F6AD
:1050B00007FB163341EA034106FB0EF38B4208D986
:1050C0001CEB010106F1FF3816D28B4214D9023EC7
:1050D0006144C91A46EA004638E72E46284605E7E5
:1050E0000646E3E61846F8E64B45A9D2B9EB0208B6
:1050F00064EB0C0E0138A3E74646EAE7204694E746
:105100004046D1E7D0467BE7023B614432E7304678
:1051100009E76444023842E7704700BF72B6FEE711
:1051200000B595B03022002108A8FBF74BF9002309
:10513000039304930593069307930193204A116CFC
:1051400041F080511164126C02F080520192019A78
:1051500002931C4B1A6842F480421A601B6803F4E5
:1051600080430293029B012308934FF480330993F9
:1051700002220E924FF480030F9304231093A82170
:1051800011911292139308A801F0E2F898B90F2335
:10519000039302230493002305934FF4A053069333
:1051A0004FF480530793052103A801F037FB20B982
:1051B00015B05DF804FBFFF7B1FFFFF7AFFF00BFCD
:1051C000003802400070004008B501F0FDFFFFF715
:1051D000A7FF00F011F802F00DFA00F0B9F802F0A4
:1051E00051F802F0CBF902F081F902F07FF802F0F9
:1051F00077FE02F0EFFEFCE72DE9F0438DB00024CE
:105200000794089409940A940B9401944A4B1A6BDE
:1052100042F010021A631A6B02F010020192019A16
:1052200002941A6B42F004021A631A6B02F0040231
:105230000292029A03941A6B42F080021A631A6B6C
:1052400002F080020392039A04941A6B42F0010266
:105250001A631A6B02F001020492049A05941A6B05
:1052600042F008021A631A6B02F008020592059ACE
:1052700006941A6B42F002021A631B6B03F00203DE
:105280000693069BDFF8C090224644F28801484608
:1052900001F093FCDFF8B48022464FF48041404691
:1052A00001F08BFC254F22460321384601F085FC96
:1052B000234E22464FF47041304601F07EFC44F20A
:1052C000880307930125089509940A9407A948467D
:1052D00001F07AFB4FF480430793089509940A94F0
:1052E00007A9404601F070FB032307930895099432
:1052F0000A9407A9384601F067FB4FF480630793CF
:105300000894099407A9304601F05EFB4FF47043FE
:105310000793089509940A9407A9304601F054FBB5
:10532000102307930894099407A9064801F04CFB41
:105330000DB0BDE8F08300BF00380240000002401D
:10534000000C02400004024000100240000802402D
:1053500008B50A480A4B03604FF4E1334360002369
:105360008360C36003610C2242618361C36100F00A
:1053700001FD00B908BDFFF7D1FEFBE76C0200207C
:105380000010014030B589B00023039304930593C6
:1053900006930793026803F1804303F588339A422A
:1053A00001D009B030BD04460025019503F59433C2
:1053B0005A6C42F010025A645A6C02F010020192C8
:1053C000019A02951A6B42F001021A631B6B03F0FB
:1053D00001030293029B4FF4C063039302230493DF
:1053E000032306930723079303A9124801F0ECFA5D
:1053F0001148124B03604FF0006343608560C56045
:105400004FF48063036145618561C5610562456252
:1054100001F062FC58B9084BE3639C63002211461B
:10542000252001F051FE252001F086FEB9E7FFF7A7
:1054300075FEF0E7000002400C02002040640240CC
:10544000FEE7FEE7FEE7FEE7FEE7704770477047BE
:1054500008B501F0D3FE08BD08B5024800F072FDA2
:1054600008BD00BF6C02002008B5024801F02CFD09
:1054700008BD00BF0C02002082B0002100910B4B40
:105480005A6C42F480425A645A6C02F48042009290
:10549000009A01911A6C42F080521A641B6C03F05E
:1054A00080530193019B02B0704700BF0038024057
:1054B00030B4036A026A22F001020262426884691F
:1054C00024F073040D682C4323F0020C8B6843EA2C
:1054D0000C03104DA84203D005F58065A84205D104
:1054E00023F00803CD682B4323F00403094DA842A1
:1054F00003D005F58065A84205D122F440724D69BC
:105500002A438D692A43426084614A684263036288
:1055100030BC70470000014030B4036A026A22F4D4
:10552000807202624268C46924F0730C0C6844EA19
:105530000C0523F400738C6843EA0423114CA04249
:1055400003D004F58064A04206D123F40063CC6844
:1055500043EA042323F480630A4CA04203D004F5F9
:105560008064A04207D122F440524C6942EA0412FE
:105570008C6942EA04124260C5614A68C2630362F0
:1055800030BC70470000014030B4036A026A22F464
:10559000805202624468C26922F4E6420D6842EA1F
:1055A000052223F400538D6843EA0533094DA842D0
:1055B00003D005F58065A84204D124F480444D69E8
:1055C00044EA85144460C2614A680264036230BCE4
:1055D000704700BF000001400368344A904212D077
:1055E000B0F1804F0FD0A2F57C4290420BD002F573
:1055F0008062904207D002F58062904203D002F5AB
:105600007842904203D123F070034A681343274A3B
:1056100090422AD0B0F1804F27D0A2F57C42904230
:1056200023D002F5806290421FD002F58062904242
:105630001BD002F57842904217D002F5705290428A
:1056400013D002F5806290420FD002F58062904242
:105650000BD0A2F59832904207D002F580629042BA
:1056600003D002F58062904203D123F44073CA68EC
:10567000134323F080034A69134303608B68C362BA
:105680000B688362094B984203D003F5806398420C
:1056900001D10B69036301234361036913F0010F17
:1056A00003D0036923F00103036170470000014048
:1056B00040B310B5044690F83D30F3B1022384F8AE
:1056C0003D30214651F8040BFFF786FF012384F893
:1056D000463084F83E3084F83F3084F8403084F817
:1056E000413084F8423084F8433084F8443084F800
:1056F000453084F83D30002010BD80F83C3001F08A
:1057000085FEDBE701207047002856D0F8B50D462E
:10571000044690F83D30002B4AD0022384F83D30F7
:105720002268936823F4804323F0070393602146A3
:1057300051F8040BFFF750FF21688A688B690E6AE5
:105740002868104323F4407C2CF0030CAA68AB6952
:1057500042EA032343EA0C0323F47C4323F0FC03D3
:10576000EA69EF6847EA022C4CEA030C2A6A130341
:105770002A6943EA021343EA0C0326F0AA066A6880
:105780006D6942EA05123243886021688B612368A3
:105790001A62012384F8463084F83E3084F83F30A2
:1057A00084F8423084F8433084F83D300020F8BD5E
:1057B00080F83C3001F0CCFDAFE7012070470000DD
:1057C00030B4036A026A22F01002026244688269FD
:1057D00022F4E6420D6842EA052223F020038D6898
:1057E00043EA0513114DA84203D005F58065A84290
:1057F00006D123F08003CD6843EA051323F040036C
:105800000A4DA84203D005F58065A84207D124F4CB
:1058100040644D6944EA85048D6944EA8504446026
:1058200082614A688263036230BC704700000140B5
:1058300038B590F83C30012B66D004460D46012364
:1058400080F83C300C2A5AD8DFE802F00759595941
:105850001B5959593059595944000068FFF728FE1F
:105860002268936943F0080393612268936923F0E7
:10587000040393612268936929690B4393610020B3
:105880003EE00068FFF79CFF2268936943F40063E1
:1058900093612268936923F480639361226893691A
:1058A000296943EA01239361002029E00068FFF79A
:1058B00033FE2268D36943F00803D3612268D369B9
:1058C00023F00403D3612268D36929690B43D361B0
:1058D000002015E00068FFF757FE2268D36943F403
:1058E0000063D3612268D36923F48063D3612268A3
:1058F000D369296943EA0123D361002000E0012034
:10590000002384F83C3038BD0220FCE701F01F0181
:10591000012303FA01FC036A23EA0C030362036A0E
:1059200002FA01F10B4303627047000010B5044610
:105930000846002942D194F83E30DBB2013B18BF43
:105940000123002B6ED1002851D1022384F83E3070
:10595000012201462068FFF7D9FF2368334A9342AA
:1059600003D002F58062934203D15A6C42F40042A4
:105970005A6423682D4A934249D0B3F1804F46D0F0
:10598000A2F57C42934242D002F5806293423ED01F
:1059900002F5806293423AD002F57842934236D0C3
:1059A00002F57052934232D0A2F5943293422ED037
:1059B0001A6842F001021A60002032E0042908D07F
:1059C00008290DD094F84130DBB2013B18BF012308
:1059D000B7E794F83F30DBB2013B18BF0123B0E7D3
:1059E00094F84030DBB2013B18BF0123A9E704283B
:1059F00005D0082807D0022384F84130A8E7022305
:105A000084F83F30A4E7022384F84030A0E79A6886
:105A100002F00702062A07D01A6842F001021A6053
:105A2000002010BD0120FCE70020FAE70000014043
:105A300038B5044690F83E00C0B294F83F3094F870
:105A40004220D2B294F843C00D46B1B9012849D1E1
:105A5000012A48D1022384F83E3084F842307DB3D5
:105A6000042D39D0012200212068FFF74FFF0122C9
:105A700004212068FFF74AFF27E0DBB25FFA8CFCC5
:105A8000042912D0012833D1012B2CD1012A31D184
:105A9000BCF1010F30D1022384F83E3084F83F304E
:105AA00084F8423084F84330D9E7012B1CD1BCF193
:105AB000010F1BD1022384F83F3084F84330CEE736
:105AC000012200212068FFF721FF2268136843F0BC
:105AD00001031360002006E0012204212068FFF783
:105AE00015FFF2E7012038BD0120FCE71846FAE770
:105AF0000120F8E71846F6E71046F4E790F83C3046
:105B0000012B3DD010B4012380F83C30022380F8F3
