:020000040800F2
:1000000000000220993100088D0F00088F0F0008B2
:10001000910F0008930F0008950F000800000000E2
:10002000000000000000000000000000970F000822
:10003000990F0008000000009B0F00089D0F0008AA
:10004000E9310008E9310008E9310008E931000828
:10005000E9310008E9310008E9310008E931000818
:10006000E9310008E9310008E9310008E931000808
:10007000E9310008E9310008E9310008E9310008F8
:10008000E9310008E9310008E9310008E9310008E8
:10009000E9310008E9310008E9310008E9310008D8
:1000A000E9310008E9310008E9310008E9310008C8
:1000B000E9310008E9310008E9310008E9310008B8
:1000C000E9310008E9310008E9310008E9310008A8
:1000D000E9310008A50F0008E9310008E9310008FE
:1000E000E9310008E9310008E9310008E931000888
:1000F000E9310008E9310008E9310008E931000878
:10010000E9310008E9310008E9310008E931000867
:10011000E9310008E9310008E9310008E931000857
:10012000E9310008E9310008B50F0008E93100089D
:10013000E9310008E9310008E9310008E931000837
:10014000E9310008E9310008E9310008E931000827
:10015000E9310008E9310008E9310008E931000817
:10016000E9310008E9310008E9310008E931000807
:10017000E9310008E9310008E93100080000000019
:08018000E9310008E931000833
:1001900001F0FF01102A2BDB10F0070F08D010F838
:1001A000013B013A8B422DD010F0070F42B3F6D13C
:1001B000F0B441EA012141EA014122F007047FF055
:1001C00000070023F0E80256083C85EA010586EAAC
:1001D000010685FA47F5A3FA87F586FA47F6A5FAE8
:1001E00087F68EB9EED1F0BC01F0FF0102F00702F4
:1001F00032B110F8013B013A83EA010313B1F8D19F
:100200000020704701387047002D06BF354603387F
:10021000073815F0010F07D1013015F4807F02BFB8
:10022000013015F4C03F0130F0BC0138704700BF09
:10023000034613F8012B002AFBD1181A0138704726
:1002400081F0004102E000BF83F0004330B54FEA87
:1002500041044FEA430594EA050F08BF90EA020FF4
:100260001FBF54EA000C55EA020C7FEA645C7FEA87
:10027000655C00F0E2804FEA5454D4EB5555B8BFAA
:100280006D420CDD2C4480EA020281EA030382EA1B
:10029000000083EA010180EA020281EA0303362DAD
:1002A00088BF30BD11F0004F4FEA01314FF4801C80
:1002B0004CEA113102D0404261EB410113F0004F92
:1002C0004FEA03334CEA133302D0524263EB430349
:1002D00094EA050F00F0A780A4F10104D5F1200EE7
:1002E0000DDB02FA0EFC22FA05F2801841F1000142
:1002F00003FA0EF2801843FA05F359410EE0A5F116
:1003000020050EF1200E012A03FA0EFC28BF4CF046
:10031000020C43FA05F3C01851EBE37101F00045FC
:1003200007D54FF0000EDCF1000C7EEB00006EEB09
:100330000101B1F5801F1BD3B1F5001F0CD3490893
:100340005FEA30004FEA3C0C04F101044FEA4452EA
:1003500012F5800F80F09A80BCF1004F08BF5FEA71
:10036000500C50F1000041EB045141EA050130BD51
:100370005FEA4C0C404141EB0101013C28BFB1F563
:10038000801FE9D291F0000F04BF01460020B1FAAE
:1003900081F308BF2033A3F10B03B3F120020CDA81
:1003A0000C3208DD02F1140CC2F10C0201FA0CF05F
:1003B00021FA02F10CE002F11402D8BFC2F1200CC4
:1003C00001FA02F120FA0CFCDCBF41EA0C0190407A
:1003D000E41AA2BF01EB0451294330BD6FEA0404C3
:1003E0001F3C1CDA0C340EDC04F11404C4F12002AE
:1003F00020FA04F001FA02F340EA030021FA04F3C0
:1004000045EA030130BDC4F10C04C4F1200220FA16
:1004100002F001FA04F340EA0300294630BD21FA54
:1004200004F0294630BD94F0000F83F4801306BF1A
:1004300081F480110134013D4EE77FEA645C18BF0E
:100440007FEA655C29D094EA050F08BF90EA020FA5
:1004500005D054EA000C04BF1946104630BD91EA9D
:10046000030F1EBF0021002030BD5FEA545C05D1A0
:100470004000494128BF41F0004130BD14F58004DF
:100480003CBF01F5801130BD01F0004545F0FE4153
:1004900041F470014FF0000030BD7FEA645C1ABF88
:1004A000194610467FEA655C1CBF0B46024650EABF
:1004B000013406BF52EA033591EA030F41F40021EB
:1004C00030BD00BF90F0000F04BF0021704730B571
:1004D0004FF4806404F132044FF000054FF0000146
:1004E00050E700BF90F0000F04BF0021704730B507
:1004F0004FF4806404F1320410F0004548BF4042DC
:100500004FF000013EE700BF42004FEAE2014FEA30
:1005100031014FEA02701FBF12F07F4393F07F4F0B
:1005200081F06051704732F07F4208BF704793F00E
:100530007F4F04BF41F40021704730B54FF4607421
:1005400001F0004521F000411CE700BF50EA010224
:1005500008BF704730B54FF000050AE050EA0102CD
:1005600008BF704730B511F0004502D5404261EB3D
:1005700041014FF4806404F132045FEA915C3FF47E
:10058000D8AE4FF003025FEADC0C18BF03325FEA1B
:10059000DC0C18BF033202EBDC02C2F1200300FACC
:1005A00003FC20FA02F001FA03FE40EA0E0021FAF1
:1005B00002F11444BDE600BF70B54FF0FF0C4CF4DF
:1005C000E06C1CEA11541DBF1CEA135594EA0C0F91
:1005D00095EA0C0F00F0DEF82C4481EA030621EACC
:1005E0004C5123EA4C5350EA013518BF52EA033507
:1005F00041F4801143F4801338D0A0FB02CE4FF0B9
:100600000005E1FB02E506F00042E0FB03E54FF0E8
:100610000006E1FB03569CF0000F18BF4EF0010EE0
:10062000A4F1FF04B6F5007F64F5407404D25FEADC
:100630004E0E6D4146EB060642EAC62141EA55518F
:100640004FEAC52040EA5E504FEACE2EB4F1FD0CD1
:1006500088BFBCF5E06F1ED8BEF1004F08BF5FEA4F
:10066000500E50F1000041EB045170BD06F0004601
:1006700046EA010140EA020081EA0301B4EB5C04AE
:10068000C2BFD4EB0C0541EA045170BD41F48011A6
:100690004FF0000E013C00F3AB8014F1360FDEBFCB
:1006A000002001F0004170BDC4F10004203C35DAA7
:1006B0000C341BDC04F11404C4F1200500FA05F32A
:1006C00020FA04F001FA05F240EA020001F00042CB
:1006D00021F0004110EBD37021FA04F642EB060141
:1006E0005EEA430E08BF20EAD37070BDC4F10C046B
:1006F000C4F1200500FA04F320FA05F001FA04F22F
:1007000040EA020001F0004110EBD37041F100011A
:100710005EEA430E08BF20EAD37070BDC4F1200525
:1007200000FA05F24EEA020E20FA04F301FA05F28D
:1007300043EA020321FA04F001F0004121FA04F235
:1007400020EA020000EBD3705EEA430E08BF20EA05
:10075000D37070BD94F0000F0FD101F0004640003F
:1007600041EB010111F4801F08BF013CF7D041EAC1
:10077000060195F0000F18BF704703F000465200C5
:1007800043EB030313F4801F08BF013DF7D043EA96
:100790000603704794EA0C0F0CEA135518BF95EA4C
:1007A0000C0F0CD050EA410618BF52EA4306D1D1D3
:1007B00081EA030101F000414FF0000070BD50EAF2
:1007C000410606BF1046194652EA430619D094EA7C
:1007D0000C0F02D150EA013613D195EA0C0F05D166
:1007E00052EA03361CBF104619460AD181EA0301BA
:1007F00001F0004141F0FE4141F470014FF0000072
:1008000070BD41F0FE4141F4780170BD70B54FF00C
:10081000FF0C4CF4E06C1CEA11541DBF1CEA13558C
:1008200094EA0C0F95EA0C0F00F0A7F8A4EB05046E
:1008300081EA030E52EA03354FEA013100F0888065
:100840004FEA03334FF0805545EA131343EA12632E
:100850004FEA022245EA111545EA10654FEA0026E3
:100860000EF000419D4208BF964244F1FD0404F59C
:10087000407402D25B084FEA3202B61A65EB0305F8
:100880005B084FEA32024FF480104FF4002CB6EBB5
:10089000020E75EB030E22BFB61A754640EA0C0035
:1008A0005B084FEA3202B6EB020E75EB030E22BF75
:1008B000B61A754640EA5C005B084FEA3202B6EBB6
:1008C000020E75EB030E22BFB61A754640EA9C0075
:1008D0005B084FEA3202B6EB020E75EB030E22BF45
:1008E000B61A754640EADC0055EA060E18D04FEA03
:1008F000051545EA16754FEA06164FEAC30343EAA3
:1009000052734FEAC2025FEA1C1CC0D111F4801F6F
:100910000BD141EA00014FF000004FF0004CB6E768
:1009200011F4801F04BF01430020B4F1FD0C88BF07
:10093000BCF5E06F3FF6AFAEB5EB030C04BFB6EB12
:10094000020C5FEA500C50F1000041EB045170BD05
:100950000EF0004E4EEA113114EB5C04C2BFD4EB32
:100960000C0541EA045170BD41F480114FF0000EB6
:10097000013C90E645EA060E8DE60CEA135594EA32
:100980000C0F08BF95EA0C0F3FF43BAF94EA0C0F35
:100990000AD150EA01347FF434AF95EA0C0F7FF4AA
:1009A00025AF104619462CE795EA0C0F06D152EAFE
:1009B00003353FF4FDAE1046194622E750EA4106E2
:1009C00018BF52EA43067FF4C5AE50EA41047FF4F3
:1009D0000DAF52EA43057FF4EBAE12E74FF0FF3C58
:1009E00006E000BF4FF0010C02E000BF4FF0010C29
:1009F0004DF804CD4FEA410C7FEA6C5C4FEA430CA2
:100A000018BF7FEA6C5C1BD001B050EA410C0CBFF0
:100A100052EA430C91EA030F02BF90EA020F002052
:100A2000704710F1000F91EA030F58BF994208BFB9
:100A300090422CBFD8176FEAE37040F00100704776
:100A40004FEA410C7FEA6C5C02D150EA013C07D1CD
:100A50004FEA430C7FEA6C5CD6D152EA033CD3D018
:100A60005DF8040B704700BF8446104662468C4612
:100A70001946634600E000BF01B5FFF7B7FF002845
:100A800048BF10F1000F01BD4DF808EDFFF7F4FF6E
:100A90000CBF012000205DF808FB00BF4DF808EDF9
:100AA000FFF7EAFF34BF012000205DF808FB00BF1C
:100AB0004DF808EDFFF7E0FF94BF012000205DF83E
:100AC00008FB00BF4DF808EDFFF7CEFF94BF0120F3
:100AD00000205DF808FB00BF4DF808EDFFF7C4FFEC
:100AE00034BF012000205DF808FB00BF4FEA410C35
:100AF0007FEA6C5C02D150EA013C0AD14FEA430C18
:100B00007FEA6C5C02D152EA033C02D14FF0000054
:100B100070474FF0010070474FEA410212F5001292
:100B200015D211D56FF47873B3EB625212D94FEA34
:100B3000C12343F0004343EA505311F0004F23FA1E
:100B400002F018BF404270474FF00000704750EA73
:100B5000013005D111F0004008BF6FF00040704730
:100B60004FF00000704700BF4FEA4102B2F1E0438E
:100B700024BFB3F5001CDCF1FE5C0DD901F0004C84
:100B80004FEAC0024CEA5070B2F1004F40EB8300D4
:100B900008BF20F00100704711F0804F21D113F100
:100BA0003872BCBF01F00040704741F480114FEA39
:100BB0005252C2F11802C2F1200C10FA0CF320FAC2
:100BC00002F018BF40F001004FEAC1234FEAD323DF
:100BD00003FA0CFC40EA0C0023FA02F34FEA430349
:100BE000CCE77FEA625307D150EA01331EBF4FF0D2
:100BF000FE4040F44000704701F0004040F0FE40ED
:100C000040F40000704700BF53B94AB9002908BF3B
:100C100000281CBF4FF0FF314FF0FF3000F00CB840
:100C2000ADF1080C6DE904CE05F046FDDDF804E0F9
:100C3000DDE9022304B07047704700BF10B5054CD2
:100C4000237833B9044B13B10448AFF30080012378
:100C5000237010BDD8010020000000005869000872
:100C600008B5034B1BB103490348AFF3008008BD2F
:100C700000000000DC0100205869000872B6FEE7A1
:100C800000B595B03022002108A803F0E1FD002353
:100C9000039304930593069307930193204A116CE1
:100CA00041F080511164126C02F080520192019A5D
:100CB00002931C4B1A6842F480421A601B6803F4CA
:100CC00080430293029B012308934FF480330993DE
:100CD00002220E924FF480030F9304231093A82155
:100CE00011911292139308A801F0D6F898B90F2326
:100CF000039302230493002305934FF4A053069318
:100D00004FF480530793052103A801F02FFB20B96E
:100D100015B05DF804FBFFF7B1FFFFF7AFFF00BFB1
:100D2000003802400070004008B501F0FFFFFFF7F7
:100D3000A7FF00F011F802F015FA00F0AFF802F08A
:100D400059F802F0D3F902F089F902F087F802F0BD
:100D5000D9FB02F0DFFBFCE72DE9F0438DB0002466
:100D60000794089409940A940B940194464B1A6BC7
:100D700042F010021A631A6B02F010020192019AFB
:100D800002941A6B42F004021A631A6B02F0040216
:100D90000292029A03941A6B42F080021A631A6B51
:100DA00002F080020392039A04941A6B42F001024B
:100DB0001A631A6B02F001020492049A05941A6BEA
:100DC00042F008021A631A6B02F008020592059AB3
:100DD00006941A6B42F002021A631B6B03F00203C3
:100DE0000693069BDFF8AC90224644F28801484601
:100DF00001F088FCDFF8A08022464FF48041404695
:100E000001F080FC214F22460321384601F07AFC94
:100E10001F4E22464FF47041304601F073FC44F2FD
:100E2000880307930125089509940A9407A9484661
:100E300001F072FB4FF480430793089509940A94DC
:100E400007A9404601F068FB03230793089509941E
:100E50000A9407A9384601F05FFB4FF480630793BB
:100E60000894099407A9304601F056FB4FF47043EB
:100E70000793089509940A9407A9304601F04CFBA2
:100E80000DB0BDE8F08300BF003802400000024012
:100E9000000C0240001002400008024008B50A4859
:100EA0000A4B03604FF4E133436000238360C36067
:100EB00003610C2242618361C36100F001FD00B94E
:100EC00008BDFFF7DBFEFBE75402002000100140E5
:100ED00030B589B0002303930493059306930793D9
:100EE000026803F1804303F588339A4201D009B0C8
:100EF00030BD04460025019503F594335A6C42F049
:100F000010025A645A6C02F010020192019A029582
:100F10001A6B42F001021A631B6B03F00103029388
:100F2000029B4FF4C06303930223049303230693AD
:100F30000723079303A9124801F0EEFA1148124B58
:100F400003604FF0006343608560C5604FF48063C9
:100F5000036145618561C5610562456201F05EFC22
:100F600058B9084BE3639C6300221146252001F029
:100F70008FFE252001F09CFEB9E7FFF77FFEF0E72A
:100F800000000240F401002040640240FEE7FEE75A
:100F9000FEE7FEE7FEE770477047704708B501F0CF
:100FA000DFFE08BD08B5024800F072FD08BD00BFB5
:100FB0005402002008B5024801F028FD08BD00BF1A
:100FC000F401002082B0002100910B4B5A6C42F4D6
:100FD00080425A645A6C02F480420092009A019155
:100FE0001A6C42F080521A641B6C03F08053019318
:100FF000019B02B0704700BF0038024030B4036A62
:10100000026A22F0010202624268846924F0730CD1
:101010000C6844EA0C0423F0020C8B6843EA0C03CE
:10102000114DA84203D005F58065A84205D123F0F3
:101030000803CD682B4323F004030B4DA84203D0D3
:1010400005F58065A84207D122F440724D6945EA52
:10105000020C8A6942EA0C02426084614A68426377
:10106000036230BC704700BF0000014030B4036A27
:10107000026A22F4807202624268C46924F0730C2E
:101080000C6844EA0C0523F400738C6843EA0423DB
:10109000114CA04203D004F58064A04206D123F491
:1010A0000063CC6843EA042323F480630A4CA04223
:1010B00003D004F58064A04207D122F440524C6969
:1010C00042EA04128C6942EA04124260C5614A682D
:1010D000C263036230BC70470000014030B4036A51
:1010E000026A22F4805202624468C26922F4E64233
:1010F0000D6842EA052223F400538D6843EA053364
:10110000094DA84203D005F58065A84204D124F416
:1011100080444D6944EA85144460C2614A680264AF
:10112000036230BC704700BF000001400368344ACE
:10113000904212D0B0F1804F0FD0A2F57C42904285
:101140000BD002F58062904207D002F58062904297
:1011500003D002F57842904203D123F070034A682D
:101160001343274A90422AD0B0F1804F27D0A2F5EE
:101170007C42904223D002F5806290421FD002F55B
:10118000806290421BD002F57842904217D002F55F
:101190007052904213D002F5806290420FD002F557
:1011A000806290420BD0A2F59832904207D002F5AF
:1011B0008062904203D002F58062904203D123F412
:1011C0004073CA68134323F080034A6913430360E2
:1011D0008B68C3620B688362094B984203D003F5A6
:1011E0008063984201D10B69036301234361036962
:1011F00013F0010F03D0036923F00103036170476B
:101200000000014040B310B5044690F83D30F3B102
:10121000022384F83D30214651F8040BFFF786FF86
:10122000012384F8463084F83E3084F83F3084F857
:10123000403084F8413084F8423084F8433084F8F8
:10124000443084F8453084F83D30002010BD80F8EB
:101250003C3001F093FEDBE701207047002853D0BB
:10126000F8B50D46044690F83D30002B47D00223D8
:1012700084F83D302268936823F4804323F0070309
:101280009360214651F8040BFFF750FF21688B68EB
:101290008A690E6A2868184322F4407222F0030219
:1012A000AB68AF6943EA0723134323F47C4323F07D
:1012B000FC03EA68EF6942EA07221A432B6A1B0320
:1012C0002F6943EA0713134326F0AA066A686D697B
:1012D00042EA05123243886021688B6123681A62F2
:1012E000012384F8463084F83E3084F83F3084F897
:1012F000423084F8433084F83D300020F8BD80F857
:101300003C3001F0DDFDB2E70120704730B4036AE4
:10131000026A22F0100202624468826922F4E64204
:101320000D6842EA052223F020038D6843EA051385
:10133000114DA84203D005F58065A84206D123F0DF
:101340008003CD6843EA051323F040030A4DA84209
:1013500003D005F58065A84207D124F440644D69A7
:1013600044EA85048D6944EA8504446082614A68E0
:101370008263036230BC70470000014038B590F8CA
:101380003C30012B66D004460D46012380F83C30EA
:101390000C2A5AD8DFE802F0075959591B595959F4
:1013A0003059595944000068FFF728FE22689369B4
:1013B00043F0080393612268936923F00403936167
:1013C0002268936929690B43936100203EE000681D
:1013D000FFF79CFF2268936943F4006393612268DE
:1013E000936923F48063936122689369296943EACE
:1013F00001239361002029E00068FFF737FE22688F
:10140000D36943F00803D3612268D36923F004034E
:10141000D3612268D36929690B43D361002015E0A9
:101420000068FFF75BFE2268D36943F40063D36171
:101430002268D36923F48063D3612268D369296960
:1014400043EA0123D361002000E00120002384F857
:101450003C3038BD0220FCE701F01F014FF0010CC9
:101460000CFA01FC036A23EA0C030362036A8A4054
:10147000134303627047000010B504460846002974
:1014800042D194F83E30DBB2013B18BF0123002B60
:101490006ED1002851D1022384F83E30012201464A
:1014A0002068FFF7D9FF2368334A934203D002F53F
:1014B0008062934203D15A6C42F400425A6423681A
:1014C0002D4A934249D0B3F1804F46D0A2F57C42D9
:1014D000934242D002F5806293423ED002F5806290
:1014E00093423AD002F57842934236D002F57052D8
:1014F000934232D0A2F5943293422ED01A6842F031
:1015000001021A60002032E0042908D008290DD019
:1015100094F84130DBB2013B18BF0123B7E794F8E0
:101520003F30DBB2013B18BF0123B0E794F84030F5
:10153000DBB2013B18BF0123A9E7042805D0082826
:1015400007D0022384F84130A8E7022384F83F3013
:10155000A4E7022384F84030A0E79A6802F007026B
:10156000062A07D01A6842F001021A60002010BD56
:101570000120FCE70020FAE70000014038B50446EE
:1015800090F83E00C0B294F83F3094F84220D2B2B6
:1015900094F843C00D46B1B9012849D1012A48D178
:1015A000022384F83E3084F842307DB3042D39D0D4
:1015B000012200212068FFF74FFF0122042120684B
:1015C000FFF74AFF27E0DBB25FFA8CFC042912D058
:1015D000012833D1012B2CD1012A31D1BCF1010FCB
:1015E00030D1022384F83E3084F83F3084F8423012
:1015F00084F84330D9E7012B1CD1BCF1010F1BD17A
:10160000022384F83F3084F84330CEE701220021E2
:101610002068FFF721FF2268136843F0010313607D
:10162000002006E0012204212068FFF715FFF2E701
:10163000012038BD0120FCE71846FAE70120F8E751
:101640001846F6E71046F4E790F83C20012A3DD012
:1016500010B40346012280F83C20022280F83D208D
:1016600002685068946820F0700C086840EA0C002A
:1016700050601A68164882421AD0B2F1804F17D0D3
:10168000A0F57C40824213D000F5806082420FD0EA
:1016900000F5806082420BD000F57840824207D08E
:1016A00000F57050824203D0A0F59430824204D1FC
:1016B00024F08004496821439160012283F83D2091
:1016C000002083F83C005DF8044B7047022070470F
:1016D00000000140026802F10C0353E8003F23F0D0
:1016E000C0030C3242E800310029F3D1202380F8F6
:1016F00041307047026802F10C0353E8003F23F4C5
:1017000090730C3242E800310029F3D1026802F1F3
:10171000140353E8003F23F00103143242E8003180
:101720000029F3D1036B012B05D0202380F8423030
:10173000002303637047026802F10C0353E8003F83
:1017400023F010030C3242E800310029F3D1ECE71A
:1017500090F84130DBB2212B01D002207047836822
:10176000B3F5805F17D0036A5A1C02621A780368C7
:101770005A60C38C9BB2013B9BB2C3844BB90268D5
:10178000D36823F08003D3600268D36843F040033A
:10179000D360002070470369002BE4D1036A1B88E3
:1017A0000268C3F308035360036A02330362E0E78D
:1017B00010B504460268136923F44053C1680B4313
:1017C0001361836802691A4343691A43C3691A4360
:1017D0000168CB6823F4164323F00C031343CB605A
:1017E0000268536923F4407381690B4353610368B2
:1017F000314A934206D002F58062934202D000F053
:101800006BFE01E000F078FEE369B3F5004F29D0EC
:101810000021031849411B1841F10001C90041EAA8
:101820005371DB00181863684FEA83024FEA937321
:1018300041F10001FFF7E8F9204AA2FB0031490914
:10184000642303FB11031B013233A2FB03235B0957
:1018500003F0F00202EB011203F00F0321681344BE
:101860008B6010BD0023021843EB0301121841F1F5
:101870000001C90041EA5271D200101841F1000183
:10188000626892185B41FFF7BFF90C4AA2FB003176
:101890004909642303FB1103DB003233A2FB03235A
:1018A0005B095A0002F4F87202EB011203F007031D
:1018B000216813448B60D4E7001001401F85EB5171
:1018C00060B310B5044690F8413013B3242384F874
:1018D00041302268D36823F40053D3602046FFF7D9
:1018E00067FF2268136923F49043136122685369E8
:1018F00023F02A0353612268D36843F40053D36072
:1019000000206064202384F8413084F84230606312
:1019100010BD80F84030FFF7DBFAD7E701207047B1
:10192000704708B50168CA6822F04002CA602022E8
:1019300080F84120FFF7F4FF002008BD7047704792
:1019400010B5846B23685A6994F84130DBB2212BBF
:1019500010D023685A6902F0400294F84230DBB29A
:10196000222B11D0636C43F0100363642046FFF711
:10197000E6FF10BD02F08002002AEAD00023E384D3
:101980002046FFF7A7FEE4E7002AEBD00023E3851B
:101990002046FFF7AFFEE5E708B5806B0023C3855F
:1019A000C384FFF7CCFF08BD704790F84230DBB22C
:1019B000222B69D18368B3F5805F4FD0826AB3F57B
:1019C000805F04D0002B56D10369002B53D10368EC
:1019D0005B681370836A01338362C38D9BB2013BE2
:1019E0009BB2C385002B51D100B583B00268D36888
:1019F00023F02003D3600268D36823F48073D3609C
:101A00000268536923F001035361202380F84230B8
:101A100000234363036B012B33D10023036302686C
:101A200002F10C0353E8003F23F010030C3242E8AC
:101A300000310029F3D103681A6812F0100F06D0A4
:101A4000002201921A6801925B680193019B818DCB
:101A5000FFF7AAFF002003B05DF804FB0269002A2B
:101A6000ACD1826A03685B68C3F308031380836A9E
:101A700002338362B1E703685B6803F07F0313708E
:101A8000A8E701F027FDE5E7022070470020704736
:101A900010B582B0044602681368D068516913F02B
:101AA0000F0F09D113F0200F0CD010F0200F09D028
:101AB0002046FFF77AFF16E011F0010115D110F46E
:101AC000907F12D1216B012979D013F0800F03D0C0
:101AD00010F0800F40F0148113F0400F03D010F08D
:101AE000400F40F0118102B010BD13F0010F06D07D
:101AF00010F4807F03D0626C42F00102626413F044
:101B0000040F04D019B1626C42F00202626413F057
:101B1000020F04D019B1626C42F00402626413F047
:101B2000080F07D010F0200F00D119B1626C42F0FD
:101B300008026264626C002AD5D013F0200F02D034
:101B400010F0200F29D123685B6903F04003626C19
:101B500012F0080F00D163B32046FFF7CBFD2368D6
:101B60005B6913F0400F20D0226802F1140353E8A0
:101B7000003F23F04003143242E800310029F3D142
:101B8000E36B73B1624A1A65E06B00F02CFF00282A
:101B9000A9D0E06B036D9847A5E72046FFF705FF46
:101BA000D1E72046FFF7CBFE9DE72046FFF7C7FEB3
:101BB00099E72046FFF7C3FE0023636493E713F021
:101BC000100F82D010F0100F3FF47FAF002301936D
:101BD0001368019353680193019B536913F0400FFD
:101BE00052D0E26B13685B689BB2002B3FF47BAF73
:101BF000A18D99427FF677AFE385D369B3F5807FF6
:101C000037D0226802F10C0353E8003F23F48073BD
:101C10000C3242E800310029F3D1226802F11403AA
:101C200053E8003F23F00103143242E80031002959
:101C3000F3D1226802F1140353E8003F23F040037C
:101C4000143242E800310029F3D1202384F84230D5
:101C500000232363226802F10C0353E8003F23F0C2
:101C600010030C3242E800310029F3D1E06B00F0A0
:101C700070FE02236363A18DE38D9BB2C91A89B202
:101C80002046FFF791FE2EE7A18DE38D9BB2C91A86
:101C900089B2E38D9BB2002B3FF425AF00293FF4BE
:101CA00022AF226802F10C0353E8003F23F4907343
:101CB0000C3242E800300028F3D1226802F114030C
:101CC00053E8003F23F00103143242E800300028BB
:101CD000F3D1202384F8423000232363226802F1E9
:101CE0000C0353E8003F23F010030C3242E80030AD
:101CF0000028F3D1022363632046FFF755FEF2E686
:101D00002046FFF725FDEEE62046FFF70AFEEAE64D
:101D10009919000808B5806B01234363036B012BFD
:101D200002D0FFF70BFE08BD818D4908FFF73CFE8E
:101D3000F9E708B50346806B1B681B6813F4807FC6
:101D40002BD10023C385026802F10C0353E8003F46
:101D500023F480730C3242E800310029F3D1026889
:101D600002F1140353E8003F23F00103143242E868
:101D700000310029F3D1026802F1140353E8003F57
:101D800023F04003143242E800310029F3D120232C
:101D900080F84230036B012B07D000234363036BB1
:101DA000012B0FD001F096FB08BD026802F10C0375
:101DB00053E8003F23F010030C3242E800310029C1
:101DC000F3D1EAE7818DFFF7EFFDEDE730B583B0A2
:101DD000044613468162828500254564222280F8EC
:101DE0004220C26B1F48D063E26B1F481064E26B55
:101DF0001E48D064E26B156520680A46011DE06B41
:101E000000F072FD019523681A6801925B680193E6
:101E1000019B23695BB1226802F10C0353E8003F88
:101E200043F480730C3242E800310029F3D1226878
:101E300002F1140353E8003F43F00103143242E877
:101E400000310029F3D1226802F1140353E8003F66
:101E500043F04003143242E800310029F3D100205E
:101E600003B030BD331D0008151D000841190008DE
:101E700008B590F84230DBB2202B08D149B10AB93D
:101E8000012008BD00230363FFF7A0FFF9E702204C
:101E9000F7E70120F5E70000002800F0E08170B5C9
:101EA00082B00446036813F0010F3BD09F4B9B6840
:101EB00003F00C03042B2CD09C4B9B6803F00C0309
:101EC000082B21D06368B3F5803F4FD0B3F5A02F26
:101ED00052D0964B1A6822F480321A601A6822F4A3
:101EE00080221A606368002B50D000F045FF054641
:101EF0008E4B1B6813F4003F14D100F03DFF401BD4
:101F00006428F5D90320B1E1884B5B6813F4800F96
:101F1000D8D0864B1B6813F4003F03D06368002BB6
:101F200000F09F81236813F0020F54D07F4B9B6811
:101F300013F00C0F3ED07D4B9B6803F00C03082B75
:101F400033D0E368002B68D0794B01221A6000F08F
:101F500013FF0546754B1B6813F0020F54D100F0B8
:101F60000BFF401B0228F5D903207FE16F4A13685D
:101F700043F480331360B5E76C4B1A6842F4802257
:101F80001A601A6842F480321A60ABE700F0F4FE7F
:101F90000546664B1B6813F4003FC3D000F0ECFE0F
:101FA000401B6428F5D9032060E1604B5B6813F4A3
:101FB000800FC6D15D4B1B6813F0020F03D0E3689E
:101FC000012B40F05081594A136823F0F80321692E
:101FD00043EAC1031360236813F0080F42D063691A
:101FE0006BB3534B0122C3F8802E00F0C5FE0546AB
:101FF0004E4B5B6F13F0020F34D100F0BDFE401B5F
:102000000228F5D9032031E1484A136823F0F80388
:10201000216943EAC1031360DDE7454B00221A60E2
:1020200000F0AAFE0546414B1B6813F0020FD2D008
:1020300000F0A2FE401B0228F5D9032016E13C4B1C
:102040000022C3F8802E00F097FE0546374B5B6FE9
:1020500013F0020F06D000F08FFE401B0228F5D9C6
:10206000032003E1236813F0040F77D02F4B1B6C80
:1020700013F0805F33D1002301932C4B1A6C42F094
:1020800080521A641B6C03F080530193019B01255D
:10209000284B1B6813F4807F23D0A368012B34D016
:1020A000052B38D0214B1A6F22F001021A671A6FE4
:1020B00022F004021A67A368002B3DD000F05CFEFA
:1020C00006461A4B1B6F13F0020F46D100F054FE68
:1020D000801B41F288339842F3D90320C6E00025E3
:1020E000D6E7144A136843F48073136000F044FE8B
:1020F0000646104B1B6813F4807FCED100F03CFEE7
:10210000801B0228F5D90320B0E0084A136F43F082
:1021100001031367CFE7054B1A6F42F004021A67F9
:102120001A6F42F001021A67C5E700BF003802408B
:10213000000047420070004000F01EFE0646524B71
:102140001B6F13F0020F08D000F016FE801B41F247
:1021500088339842F3D9032088E0EDB9A369002BB6
:1021600000F08380484A926802F00C02082A51D09D
:10217000022B17D0454B00221A6600F0FDFD0446E5
:10218000414B1B6813F0007F42D000F0F5FD001BAF
:102190000228F5D9032069E03B4A136C23F08053F1
:1021A0001364DBE7394B00221A6600F0E5FD0546B3
:1021B000354B1B6813F0007F06D000F0DDFD401B9F
:1021C0000228F5D9032051E0E369226A1343626AC9
:1021D00043EA8213A26A5208013A43EA0243E26ADE
:1021E00043EA0263284A5360284B01221A6600F032
:1021F000C3FD0446244B1B6813F0007F06D100F09A
:10220000BBFD001B0228F5D903202FE000202DE0A4
:1022100000202BE0012B2BD01B4B5B6803F48001CB
:10222000E269914226D103F03F02216A8A4223D11A
:10223000616A47F6C0721A40B2EB811F1ED103F4E7
:102240004031A26A5208013AB1EB024F18D103F0B3
:102250007063E26AB3EB026F14D1002006E0012044
:102260007047012002E0012000E0002002B070BDB4
:102270000120FBE70120F9E70120F7E70120F5E75E
:102280000120F3E70120F1E7003802400000474257
:1022900008B5334B9B6803F00C03042B5BD0082B71
:1022A0005BD12F4B5A6802F03F025B6813F4800F3A
:1022B0002CD02B4B5868C0F388104FEA401CBCEB65
:1022C000000C6EEB0E0E4FEA8E1343EA9C634FEA4E
:1022D0008C11B1EB0C0163EB0E03DB0043EA51738D
:1022E000C90011EB000C43F10003590200234FEA2F
:1022F0004C2041EADC51FEF787FC194B5B68C3F3C5
:10230000014301335B00B0FBF3F008BD144B586888
:10231000C0F388104FEA401CBCEB000C6EEB0E0EB5
:102320004FEA8E1343EA9C634FEA8C11B1EB0C0128
:1023300063EB0E03DB0043EA5173C90011EB000CA1
:1023400043F10003990200234FEA8C2041EA9C519B
:10235000FEF75AFCD1E70348D7E70348D5E700BFAB
:102360000038024000127A000024F400002800F037
:102370009B8070B50D4604464F4B1B6803F0070366
:102380008B4208D2CBB24C4A1370136803F0070398
:102390008B4240F08B80236813F0020F17D013F0AC
:1023A000040F04D0454A936843F4E05393602368D4
:1023B00013F0080F04D0414A936843F460439360DC
:1023C0003E4A936823F0F003A1680B4393602368AF
:1023D00013F0010F32D06368012B21D09A1E012A1D
:1023E00025D9364A126812F0020F61D033498A6843
:1023F00022F0030213438B6000F0BEFC06462F4B15
:102400009B6803F00C036268B3EB820F16D000F0F8
:10241000B3FC801B41F288339842F0D9032042E09C
:10242000264A126812F4003FE0D101203BE0234A23
:10243000126812F0007FD9D1012034E01E4B1B68D6
:1024400003F00703AB4207D9EAB21B4B1A701B68B3
:1024500003F00703AB422DD1236813F0040F06D01D
:10246000164A936823F4E053E1680B4393602368B2
:1024700013F0080F07D0114A936823F460432169D1
:1024800043EAC1039360FFF703FF0C4B9B68C3F360
:1024900003130B4AD35CD8400A4B18600A4B1868E8
:1024A00000F01EFC002070BD012070470120FAE7FB
:1024B0000120F8E70120F6E7003C02400038024026
:1024C000806900080800002004000020014B186803
:1024D000704700BF0800002008B5FFF7F7FF044B66
:1024E0009B68C3F38223034AD35CD84008BD00BF76
:1024F000003802407869000808B5FFF7E7FF044B91
:102500009B68C3F34233034AD35CD84008BD00BF85
:10251000003802407869000800230F2B00F2E980A0
:1025200070B582B065E085684FEA430E032404FA73
:102530000EF425EA0405CC6804FA0EF42C438460FA
:10254000446824EA02044A68C2F300129A40224313
:1025500042605CE0DC08083450F8242003F00705F2
:10256000AD004FF00F0E0EFA05FE22EA0E0E0A69BC
:10257000AA4042EA0E0240F824205CE0072200E074
:10258000002202FA0EF22A4302345A4D45F8242062
:10259000594A94686FEA0C0224EA0C054E6816F456
:1025A000801F01D04CEA0405534CA560E46802EAA0
:1025B00004054E6816F4001F01D04CEA04054E4C89
:1025C000E560646802EA04054E6816F4003F01D035
:1025D0004CEA0405484C6560246822404D6815F4B7
:1025E000803F01D04CEA0402434C226001330F2BA0
:1025F0007DD801229A400C6804EA020C32EA0404F5
:10260000F4D14C6804F00304013C012C8BD94A68D6
:1026100002F00302032A09D0C4685D000322AA4025
:1026200024EA02048A68AA402243C2604A6802F08F
:102630000302022A8ED004684FEA430E032202FAF4
:102640000EF224EA02044A6802F0030202FA0EF2D1
:10265000224302604A6812F4403FC7D00022019230
:10266000264A546C44F480445464526C02F4804210
:102670000192019A9C08A51C1E4A52F8255003F0AD
:10268000030E4FEA8E0E0F2202FA0EF225EA020521
:102690001B4A90423FF474AF02F5806290421AD018
:1026A00002F58062904218D002F58062904216D006
:1026B00002F58062904214D002F58062904212D0FE
:1026C00002F58062904210D002F5806290423FF4A1
:1026D00055AF082255E7012253E7022251E70322B2
:1026E0004FE704224DE705224BE7062249E702B0F7
:1026F00070BD704700380140003C01400038024086
:10270000000002400AB1816170470904816170478D
:10271000436901EA030221EA030141EA02418161BE
:10272000704730B405682C6824F480242C60046859
:1027300063608368402B05D0036899600368DA60A2
:1027400030BC704703689A600368D960F8E70000FE
:1027500010B40368D9B210390A4AA2FB0142120927
:10276000094CA25CC2655F2907D96FF309030433E2
:102770008365806D5DF8044B70476FF309038365D3
:10278000F7E700BFABAAAAAA70690008836A82694A
:1027900092B9012B0AD0022B02D00BB10020704756
:1027A000C36A13F0807F28D100207047C36AB3F159
:1027B000C07F24D000207047B2F5005F09D0022B03
:1027C00025D9032B25D1C36A13F0807F23D10020A4
:1027D0007047032B03D8DFE803F01404140A002029
:1027E0007047C36A13F0807F0DD100207047C36A21
:1027F000B3F1C07F09D0002070470120704701204D
:102800007047012070470120704701207047012068
:1028100070470020704701207047000070B50446E3
:1028200000F0AAFA002C5BD00546022384F835306C
:10283000002384F834302268136823F00103136006
:1028400023681A6812F0010F0AD000F095FA431BB2
:10285000052BF5D920236365032084F8350070BD6E
:102860001A68204911406268A0680243E068024388
:102870002069024360690243A0690243E0690243A0
:10288000206A02430A43616A04291ED01A6026683E
:10289000756925F00705636A1D43042B07D1A36AF8
:1028A0001D43E36A1BB12046FFF770FF90B97561C5
:1028B0002046FFF74DFFE26D3F23934083600020E9
:1028C0006065012384F83530C9E7E16A206B014374
:1028D0000A43DBE740236365012084F83500BEE747
:1028E0000120BCE73F8010F038B50446856D90F8B4
:1028F000340001282BD0012084F8340094F83500EE
:10290000C0B2012804D0002384F83430022038BD3E
:10291000022084F83500002060652046FFF701FFA3
:10292000E26D3F239340AB602268136843F01603C7
:102930001360236C23B12268136843F0080313600B
:102940002268136843F0010313600020DFE70220D0
:10295000DDE770B50446866D00F00EFA94F8353068
:10296000DBB2022B06D080236365002384F8343069
:10297000012070BD05462268136823F0160313601A
:102980002268536923F080035361236CE3B122680A
:10299000136823F0080313602268136823F001030F
:1029A000136023681B6813F0010F11D000F0E4F9E5
:1029B000431B052BF5D920236365032084F83500DC
:1029C000002384F83430D4E7A36C002BDFD1E3E795
:1029D000E26D3F239340B360012384F8353000203B
:1029E00084F83400C5E790F83530DBB2022B03D011
:1029F0008023436501207047052380F83530026845
:102A0000136823F00103136000207047F0B583B012
:102A1000044600230193724B1D68724BA3FB0535DE
:102A2000AD0A876D3E68C26D08239340334210D0D3
:102A300003681A6812F0040F0BD01A6822F004021F
:102A40001A60C26D08239340BB60436D43F00103DD
:102A50004365E26D01239340334209D022685269F5
:102A600012F0800F04D0BB60636D43F00203636516
:102A7000E26D04239340334209D02268126812F0B9
:102A8000020F04D0BB60636D43F004036365E26D25
:102A900010239340334224D02268126812F0080FAA
:102AA0001FD0BB6023681A6812F4802F0DD01B68FA
:102AB00013F4002F04D1236C9BB12046984710E0FB
:102AC000A36C73B1204698470BE01A6812F4807F1C
:102AD00003D11A6822F008021A60236C0BB1204659
:102AE0009847E26D20239340334255D02268126804
:102AF00012F0100F50D0BB6094F83530DBB2052BCC
:102B00000ED023681A6812F4802F33D01B6813F498
:102B1000002F2AD1636C002B3ED0204698473BE023
:102B20002268136823F0160313602268536923F0A8
:102B300080035361236CA3B12268136823F0080358
:102B40001360E26D3F239340BB60012384F835306E
:102B5000002384F83430236D002B3FD02046984763
:102B60003CE0A36C002BE7D1EBE7E36BA3B120467D
:102B7000984711E01A6812F4807F09D11A6822F090
:102B800010021A60012384F83530002384F83430B1
:102B9000E36B0BB120469847636DFBB1636D13F097
:102BA000010F17D0052384F835302268136823F00D
:102BB00001031360019B01330193AB4204D82368E6
:102BC0001B6813F0010FF5D1012384F83530002381
:102BD00084F83430E36C0BB12046984703B0F0BD65
:102BE00008000020B5814E1B002807DB00F01F0203
:102BF000400901239340024A42F82030704700BF49
:102C000000E100E0002808DB0901C9B200F16040E2
:102C100000F5614080F80013704700F00F000901D3
:102C2000C9B2014B1954704714ED00E000B500F033
:102C30000700C0F1070CBCF1040F28BF4FF0040CD3
:102C4000031D062B0FD9C31E4FF0FF3E0EFA0CF0EA
:102C500021EA000199400EFA03FE22EA0E0241EA3F
:102C600002005DF804FB0023EEE70000074AD3688A
:102C700023F4E0631B041B0C000200F4E060034338
:102C800043F0BF6343F40033D360704700ED00E0CE
:102C900010B50446054BD868C0F30220FFF7C6FF05
:102CA00001462046FFF7AEFF10BD00BF00ED00E07B
:102CB00008B5FFF799FF08BD0138B0F1807F0BD24E
:102CC0004FF0E0235861054AF02182F823100020DC
:102CD000986107221A6170470120704700ED00E0FB
:102CE00010B504460E4B1A784FF47A73B3FBF2F327
:102CF0000C4A1068B0FBF3F0FFF7DEFF68B90F2C49
:102D000001D901200AE0002221464FF0FF30FFF7F1
:102D1000BFFF054B1C60002000E0012010BD00BF7C
:102D200000000020080000200400002008B50B4B24
:102D30001A6842F400721A601A6842F480621A60DB
:102D40001A6842F480721A600320FFF78FFF0F2089
:102D5000FFF7C6FFFEF736F9002008BD003C024031
:102D6000034A1168034B1B780B441360704700BF84
:102D70009C02002000000020014B1868704700BF33
:102D80009C020020034AD2F8883043F47003C2F852
:102D90008830704700ED00E04FF06043D3F8803E8C
:102DA00013F0010F11D04FF06043D3F8003E13F041
:102DB000010F01D1704700BF4FF060431B68002B2B
:102DC000F9D0C3B24FF060421370704770B5064639
:102DD0000D46002403E0305DFFF7DEFF0134AC4216
:102DE000F9DB204670BD08B508461146FFF7EEFF37
:102DF00008BD000000B58DB02422002103A801F019
:102E000027FD0023019302931248134A0260436096
:102E100083604FF6FF72C2600361436183610323E5
:102E2000039301230593099303A9FEF717FA50B9F9
:102E300000230193029301A90648FEF705FC28B977
:102E40000DB05DF804FBFDF719FFF1E7FDF716FF84
:102E5000F6E700BFA00200200000014000B58DB0E1
:102E60002422002103A801F0F3FC00230193029324
:102E70001148124A0260436083604FF6FF72C260DD
:102E8000036183610323039301230593099303A93A
:102E9000FEF7E4F950B900230193029301A9064813
:102EA000FEF7D2FB28B90DB05DF804FBFDF7E6FE96
:102EB000F1E7FDF7E3FEF6E73003002000080040ED
:102EC00000B58BB0002305930693079308930993ED
:102ED0000368254A934205D0244A934224D00BB07C
:102EE0005DF804FB00210191214B5A6C42F0010274
:102EF0005A645A6C02F001020192019A02911A6B13
:102F000042F010021A631B6B03F010030293029B42
:102F10004FF420630593022306930123099305A927
:102F20001448FFF7F9FADAE700210391104B1A6C05
:102F300042F004021A641A6C02F004020392039A2B
:102F400004911A6B42F002021A631B6B03F0020336
:102F50000493049BC023059302230693099305A9B8
:102F60000548FFF7D9FABAE7000001400008004021
:102F700000380240001002400004024082B00368A2
:102F8000B3F1804F04D00F4A93420ED002B0704785
:102F9000002300930C4B1A6C42F001021A641B6C64
:102FA00003F001030093009BF0E700230193064B1D
:102FB0005A6C42F480325A645B6C03F480330193A0
:102FC000019BE3E7004001400038024000B589B0B2
:102FD0000023039304930593069307930368B3F1C7
:102FE000804F05D0194A934219D009B05DF804FB0F
:102FF00000230193164B1A6B42F001021A631B6BFC
:1030000003F001030193019B2823039302230493FC
:103010000123079303A90F48FFF77EFAE5E7002392
:1030200002930B4B1A6B42F010021A631B6B03F0F6
:1030300010030293029B6023039302230493032350
:10304000079303A90448FFF767FACEE70040014061
:1030500000380240000002400010024000B58BB072
:103060000023089309930193029303930493059318
:10307000069307931C484FF08042026043608360D0
:103080004FF6FF72C26003618361FEF7BBF8F0B9CF
:1030900000230893099308A91348FEF7D5FAC8B985
:1030A00060230193002202920392059201A90E4827
:1030B000FEF764F988B90C2201A90B48FEF75EF906
:1030C00070B90948FFF782FF0BB05DF804FBFDF70C
:1030D000D5FDDDE7FDF7D2FDE2E7FDF7CFFDEAE73D
:1030E000FDF7CCFDEDE700BFE802002000B589B098
:1030F000002301930293039304930593069307938C
:103100001648174A0260436083604FF6FF72C26040
:1031100003618361FEF776F8B8B96023019300225A
:1031200002920392059201A90C48FEF727F978B99B
:1031300004220DEB02010948FEF720F958B90748AF
:10314000FFF744FF09B05DF804FBFDF797FDE4E7E6
:10315000FDF794FDECE7FDF791FDF0E77803002023
:103160000040014000B583B000210191094B1A6B6A
:1031700042F480021A631B6B03F480030193019BEA
:103180000A463A20FFF784FD3A20FFF791FD03B08D
:103190005DF804FB00380240DFF834D0FFF7F2FDA1
:1031A0000C480D490D4A002302E0D458C4500433A2
:1031B000C4188C42F9D30A4A0A4C002301E0136078
:1031C0000432A242FBD301F095FBFDF7ADFD704741
:1031D0000000022000000020D4010020086D00083B
:1031E000D8010020D8230020FEE738B5044601238B
:1031F00000E0013B002BFCDA04F1280301220CE083
:10320000012199800021996000200021C3E9040177
:10321000002199619983013A2033002AF0DA0025D0
:1032200084F8695084F86A5004F5047000F080FC5A
:10323000C4F8705AC4F8745A204638BD08B56321E2
:103240000C4B10E00022DA605A209884DA6283F88E
:1032500030200020586098601A745A619A611A628E
:10326000DA61013934330029ECDA0348FFF7BDFF96
:1032700008BD00BF380E0020C003002010B52DEDA2
:10328000028B0446B0EE408A164801F001FA94ED34
:103290001B0A30EE480A204600F0DBF994ED1B0AC9
:1032A00030EE080A04F1140000F0D3F90E4C0022AD
:1032B00001212046FFF726FA012202212046FFF7CE
:1032C00021FA04F58054002280212046FFF71AFAE3
:1032D00001224FF480412046FFF714FABDEC028B27
:1032E00010BD00BF9069000800000240000000000F
:1032F000F0B52DED028BAFB00446012200F1700154
:103300006D48FEF7B5FD9FED628B00220121B0EE06
:10331000482AF0EE682AB0EE481AF0EE681A9FEDDF
:103320005E0B684600F0B8FB04F504758A22694616
:10333000284601F006FB284600F081FB9FED581B54
:103340009FED590B284600F0FAFAB0EE482AF0EE4D
:10335000682AB0EE481AF0EE681A9FED550B284621
:1033600000F0C2FA1421284600F0C3FA01212846D1
:1033700000F054FBDFF858E1CDF890E04F4B259377
:103380004FF6FF77ADF898700025ADF89A500C23F2
:1033900027930126ADF8A0608DF8A2600DF1900C86
:1033A000BCE80F0020606160A260E360BCF8002010
:1033B000F3B22282A374CDF8A4E0414B2A93ADF876
:1033C000AC70ADF8AE502C958023ADF8B4308DF8CC
:1033D000B66004F114070DF1A40CBCE80F006061A5
:1033E000A161E2612362BCF80020F3B2A28484F8F8
:1033F0002630204600F046F9384600F043F9314BBC
:10340000009340F29153ADF8043000230293002260
:103410000023CDE904230695ADF81C50EC46BCE82A
:103420000F00A062E16222636363BCE80700A0634F
:10343000E1632264BCF80030A4F84430224B0093CE
:1034400004F14807EC46BCE80F00A064E164226583
:103450006365BCE80700A065E1652266BCF8003042
:10346000A4F8643004F1280000F0CEF8384600F0EB
:10347000CBF8C4F8C055C4F8706AC4F8A852C4F8B0
:10348000AC52124801F004F92FB0BDEC028BF0BD34
:1034900000000000000000000000000000001040DC
:1034A000000000000000184000000000000018C0EC
:1034B000000000000000F03F540200200000024025
:1034C00000100240A002002030030020986900088C
:1034D000E802002008B50268074B1B689A4200D03A
:1034E00008BD4FF400410548FFF712F901220449D5
:1034F0000148FEF7BDFCF3E754020020000C024037
:103500003004002008B50248FFF7F2FE08BD00BFF6
:10351000C00300202DE9F04385B0FFF72DFC0446E1
:103520004EE00134072C1ADC48FA04F313F0010FC3
:10353000F7D02046FCF7D6FF02460B46002029496B
:10354000FCF782FE06460F462846FCF7DDFF3246B2
:103550003B46FCF77BFEFDF707FB0546E1E7224E05
:1035600000220023C6E98A232846FCF7CDFFC6E9DE
:10357000860106F5047000F093F800221B4BD6E993
:103580008801FDF743F9FDF7EFFA00EE100A304627
:10359000FFF774FEFFF7F0FB0446D6E98689D6E90B
:1035A0008A23CDE902230022114BD6E98801FDF7D9
:1035B0002DF9CDE9000142464B460E4801F000F8D6
:1035C000FFF7DAFB001B1428FAD94FF480410A48B0
:1035D000FFF79EF8044B094ADA6693F870800024DE
:1035E00000259FE700000C40C0030020000044407D
:1035F00000004E40A0690008000C02409A99193F53
:1036000008B5FFF71BFE08BD10B504463C21006855
:10361000FDF7B4FF23681B6800225A6210BDC3681F
:1036200023B903681B6842895A637047042B06D08C
:10363000082B09D003681B6842891A647047036825
:103640001B6842899A63704703681B684289DA6382
:10365000704708B5F7EE007AB4EEE70AF1EE10FA1B
:1036600001DDB0EE670A038907EE903AF8EEE77ADB
:1036700027EE800ABCEEC00A10EE103A4381FFF735
:10368000CEFF08BD10B50446C1680068FDF7F4FE22
:103690009FED020A2046FFF7DCFF10BD000000008E
:1036A0002DE9F04F2DED04AB85B090F888502DB981
:1036B000284605B0BDEC04ABBDE8F08F0446FFF72B
:1036C0005BFB8246636EC31A226F9A4200F29280BD
:1036D000A36DD3E90089216E42464B46D1E9000132
:1036E000FCF7B2FDCDE90001D4E91A234046494672
:1036F000FCF7AAFDCDE90201D4E90067DDE900236A
:10370000D4E91001FCF758FF02460B463046394613
:10371000FCF79CFD06460F46C4E9006794F889B0A3
:10372000BBF1000F0DD1DDE90223D4E90E01FCF756
:1037300043FF02460B4630463946FCF785FDC4E997
:10374000000194ED00ABD4E9206732463B4651ECD2
:103750001A0BFDF7C1F900283AD0C4E90067BBF1A4
:10376000000F42D0DDE90023D4E90E01FCF724FF6D
:10377000CDE9000194ED00ABDDE90223D4E91201AB
:10378000FCF71AFF02460B4651EC1A0BFCF75CFDE6
:10379000DDE90023FCF75AFDCDE9000102460B46A6
:1037A00030463946FDF77AF950B9D4E91E67DDE9AC
:1037B000002330463946FDF78FF908B9DDE9006787
:1037C000E36DC3E90067C4E91A89C4F864A06FE730
:1037D00094ED1EBB53EC1B2B51EC1A0BFDF75EF95D
:1037E0000028BCD084ED00BBB9E79FED037B8DEDD5
:1037F000007BBFE700255BE7000000000000000041
:103800002DE9F04F2DED029B83B004465BEC10AB2D
:1038100057EC116B59EC128B0D46002200235046D9
:103820005946FDF73BF900283ED1002200233046DF
:103830003946FDF733F9002836D1002200234046EF
:103840004946FDF72BF900282ED16565012D14BFDF
:103850000025012584F88950C4E908ABC4E90A674A
:10386000C4E90C89206FFCF72DFE00221D4BFCF7EC
:10387000CDFFC4E90EABCDE9000102460B46304650
:103880003946FCF799FE41EC190BC4E91001DDE95A
:10389000002340464946FCF7B9FF06460F46C4E9F7
:1038A0001267236D012B04D003B0BDEC029BBDE871
:1038B000F08F52465B4600200021FCF7C5FCC4E9AE
:1038C0000E0153EC192B00200021FCF7BDFCC4E9CC
:1038D000100132463B4600200021FCF7B5FCC4E94C
:1038E0001201E1E700408F4008B5416DFFF788FF06
:1038F00008BDF8B50D1E21DD04462846FCF7F2FD93
:1039000006460F46206FFCF7DDFD02460B463046AB
:103910003946FCF77BFF06460F4602460B46D4E9C4
:103920001001FCF749FEC4E9100132463B46D4E9D8
:103930001201FCF76BFFC4E912012567F8BD2DE900
:10394000F84F044659EC108B57EC116B32463B464E
:1039500040464946FDF7B6F8F8B9C4E91E89C4E9FE
:10396000206794F88830C3B1E56DD5E900AB3246E5
:103970003B4650465946FDF7AFF880B1C5E90067B0
:10398000D4E90067D4E9208942464B46304639469F
:10399000FDF7A2F870B1C4E90089BDE8F88F42468E
:1039A0004B4650465946FDF779F80028E8D0C5E95E
:1039B0000089E5E7D4E91E8942464B463046394640
:1039C000FDF76CF80028E8D0C4E90089E5E72DE9A7
:1039D000D0430446C36DD3E90067C0E90067836D37
:1039E000D3E90023C0E91A23D0E9208942464B4697
:1039F00030463946FDF770F818B1C4E90089BDE8D2
:103A0000D083D4E91E8942464B4630463946FDF7FD
:103A100045F80028F3D0C4E90089F0E738B504463A
:103A200001290CBF0125002502D084F8885038BD3B
:103A300090F88830002BF8D1FFF7C9FFF5E700F1C7
:103A40001003C36500F10803836500F118030366E2
:103A5000704738B504460D4690F88830D3B1036DF1
:103A60008B4217D0D0E90E2300200021FCF7ECFB9D
:103A7000C4E90E01D4E9102300200021FCF7E4FB87
:103A8000C4E91001D4E9122300200021FCF7DCFB7B
:103A9000C4E91201256538BD70B52DED068B0446CD
:103AA000B0EE408AF0EE608AB0EE419AF0EE619A94
:103AB000B0EE42AAF0EE62AA0D4616469FED180B34
:103AC00080ED000B80ED020B80ED040B80ED060B0A
:103AD00080ED1A0B002380F888309FED131BFFF751
:103AE0002EFF6423236731462046FFF7B2FF2946A5
:103AF000B0EE4A2AF0EE6A2AB0EE491AF0EE691AE0
:103B0000B0EE480AF0EE680A2046FFF779FEFFF7AC
:103B100033F9236FC01A60662046BDEC068B70BD7A
:103B200000000000000000000000000000E06F4006
:103B30009FED077B80ED007B80ED027B80ED047BB9
:103B400080ED067B80ED1A7B704700BFAFF30080ED
:103B500000000000000000002DE9F04F85B057EC98
:103B6000106BDDE90E9B002F0C4690461946B8BF3E
:103B700032463B462BF0200ABBBF07F100431F46ED
:103B800000232D23B8BF1646BAF1460F0B7005D09F
:103B9000BAF1450F00D10134022100E0032103AB4B
:103BA000019302AB009347EC106B4B46224600F0AA
:103BB0005FFFBBF1670F054619D118F0010F0ED05A
:103BC00005EB04080022002330463946FCF75CFF71
:103BD00008B1CDF80C803022039B434521D3039BD1
:103BE000109A5B1B2846136005B0BDE8F08FBBF14F
:103BF000470FE2D0BAF1460F00EB0408E2D1037898
:103C0000302B0AD10022002330463946FCF73CFF16
:103C100018B9C4F10104C9F80040D9F8003098443B
:103C2000D0E7591C03911A70D6E7F7B50029BABF3F
:103C300049422D232B2309290270437029DD0DF100
:103C400007031D460A271A46B1FBF7F607FB1614B1
:103C5000303402F8014C0C46632C03F1FF3331463B
:103C6000F1DC3031941E03F8011C411C2346AB42A9
:103C70000AD30DF109039B1AAC4288BF002302331B
:103C80000344181A03B0F0BD13F8016B01F8016F7B
:103C9000EDE7302330318370C170031DF1E7000080
:103CA0002DE9F04F8DB00C46DDF8588016461F46C2
:103CB000054600F0D5FD036804931846FCF7B8FAF2
:103CC00000230A93D8F800300590073323F0070348
:103CD00003F1080294F818A0D4F800B0C8F8002046
:103CE000D3E9008929F000430793CDF81880C4E98F
:103CF0001289DDE90601A04B4FF0FF32FCF7F6FE1A
:103D000070BBDDE906019C4B4FF0FF32FCF7D0FEA3
:103D100030BB0022002340464946FCF7BFFE10B1ED
:103D20002D2384F84330954A954BBAF1470F94BF41
:103D300090469846032323612BF0040323604FF041
:103D40000009009733460BAA2146284600F0DAF90D
:103D5000013040F096804FF0FF300DB0BDE8F08F9D
:103D600042464B4640464946FCF7C0FE40B14B46F2
:103D7000002BBCBF2D2384F84330824A824BD4E70A
:103D800063685A1C26D1062363604BF480620023CB
:103D9000226003930AABCDE901A309AB00936168EC
:103DA00049EC108B0DF123032846FFF7D5FEBAF13D
:103DB000670F0999804615D1CB1C3BDB636899429C
:103DC00038DC0A9B994255DB23682161D80745D529
:103DD0004B1C42E00AF0DF02472AD6D1002BD4D197
:103DE0000123D1E7BAF1470F07D1C81C25DB63686F
:103DF0008B4222DB4FF0670AE3E7BAF1650F1FD869
:103E00000139524604F150000991FFF70EFF0A9A5A
:103E10001318012A8146236102DC2268D20701D5EA
:103E2000013323619DF82330002B8AD02D2384F8A1
:103E3000433086E74FF0650AE2E74FF0450ADFE7D7
:103E4000BAF1660FBDD1002963680BDD216113B99A
:103E50002268D00702D501330B442361A1654FF0DE
:103E60000009DFE713B92268D20701D50233F4E76E
:103E70000123F2E70029D4BFC1F102020122134459
:103E8000EBE723685A0507D42369424631462846A2
:103E9000B84701302BD15EE7BAF1650F40F2DC8004
:103EA000D4E9120100220023FCF7EEFD002833D0F4
:103EB000364A012331462846B84701303FF44BAF1C
:103EC000DDE90938434502DB2368D8070FD5DDE972
:103ED000042331462846B84701303FF43CAF4FF049
:103EE000000908F1FF3804F11A0AC84509DC236803
:103EF0009B0700F10281E0680B9B9842B8BF18460F
:103F00002BE70123524631462846B84701303FF49B
:103F100022AF09F10109E8E7099B002B38DC1B4AB5
:103F2000012331462846B84701303FF414AFDDE99C
:103F3000093959EA030302D12368D907D7D5DDE946
:103F4000042331462846B84701303FF404AF4FF010
:103F5000000A04F11A0B099B5B42534501DC4B46F6
:103F600093E701235A4631462846B84701303FF4CB
:103F7000F2AE0AF1010AEEE7FFFFEF7FAD6900083C
:103F8000B1690008B5690008B9690008BD69000891
:103F9000A36DDDF828A05345A8BF5346002B9946D2
:103FA00036DC4FF0000B29EAE97904F11A02A36D1F
:103FB0000693A3EB09035B4531DC099B9A453ADC88
:103FC0002368DA0737D4099BAAEB0309069BAAEBFF
:103FD00003039945A8BF9946B9F1000F33DC4FF0B0
:103FE000000829EAE97904F11A0B099BAAEB0303FB
:103FF000A3EB090343457FF77AAF01235A463146C5
:104000002846B84701303FF4A6AE08F10108ECE7B6
:10401000424631462846B8470130C2D19BE60123CB
:10402000314628460692B84701303FF494AE069ACE
:104030000BF1010BBBE7DDE9042331462846B84705
:104040000130C0D187E6069A4B46424431462846A5
:10405000B8470130C3D17EE6DDF828A0BAF1010FE0
:1040600001DCDB0736D50123424631462846B847F6
:1040700001303FF470AEDDE9042331462846B847ED
:1040800001303FF468AED4E91201002200230AF1A6
:10409000FF3AFCF7F9FCC0B9534608F1010231467A
:1040A0002846B84701300CD155E601235A4631461F
:1040B0002846B84701303FF44EAE08F10108D0451C
:1040C000F3DB4B4604F15002E0E64FF0000804F148
:1040D0001A0BF4E701234246E1E701234A46314641
:1040E0002846B84701303FF436AE08F10108E368CE
:1040F0000B995B1A4345F0DCFDE64FF0000804F134
:104100001909F4E72DE9F047164698468A680B69C5
:10411000DDF820909342B8BF1346336091F84320F6
:1041200007460C460AB1013333602368990642BF43
:10413000336802333360256815F0060506D104F1B3
:10414000190AE36832689B1AAB4226DC94F84330C4
:104150002268003B18BF012392062BD404F14302CE
:1041600041463846C84701301ED02368226903F013
:104170000603042B02BFE5683368ED1AA3680CBF81
:1041800025EAE57500259342C4BF9B1AED18002669
:104190001A34B5421AD1002008E0012352464146A4
:1041A0003846C847013003D14FF0FF30BDE8F087F3
:1041B0000135C6E7E1185A1C302081F8430022443B
:1041C00094F8451082F843100233C7E701232246D2
:1041D00041463846C8470130E6D00136D9E70000ED
:1041E0002DE9FF470F7E0C9D782F914680460C46A7
:1041F0009A4601F1430207D8622F0AD8002F00F037
:10420000E080582F00F0BB8004F1420684F8427031
:104210003AE0A7F16303152BF6D801A151F823F07A
:10422000794200088D42000809420008094200084E
:1042300009420008094200088D42000809420008AE
:10424000094200080942000809420008A943000881
:104250001D4300085F4300080942000809420008A6
:10426000CB430008094200081D430008094200082A
:1042700009420008674300082B681A1D1B682A6062
:1042800004F1420684F842300123ABE02368296838
:104290001F0601F10400286001D50D6803E05E06E9
:1042A000FBD5B1F900506168002D7ADA2D20002984
:1042B00084F84300A1602DDA5E486D420A23164659
:1042C000B5FBF3F103FB1157C75D06F8017D2F46DF
:1042D000BB420D46F4D9082B0BD12368DF0708D564
:1042E000236961689942DEBF302306F8013C06F17C
:1042F000FF36921B2261CDF800A04B4603AA21464F
:104300004046FFF7FFFE013071D14FF0FF3004B09F
:10431000BDE8F08723F004032360CDE72B68206815
:10432000191D2960050601D51D6802E04106FBD56F
:104330001D8840486F2F14BF0A230823002184F8EA
:1043400043106668A660002EB9DB216821F00401E5
:104350002160002DB3D1002EB1D11646BBE72368F2
:1043600043F0200323603448782784F84570296897
:1043700023680E1D2E601E0603D50D6804E02D482F
:10438000F3E75D06F9D50D88D90744BF43F0200354
:1043900023600DB11023D1E7236823F020032360AD
:1043A000F8E724480A23CCE72B6826686169181DC2
:1043B000286035061B6801D5196002E07006FBD540
:1043C000198000232361164695E72B681A1D2A6081
:1043D0001E68626800213046FBF7DAFE08B1801BD8
:1043E000606063682361002384F8433083E72369B6
:1043F000324649464046D047013086D023689B0765
:1044000014D4E068039B9842B8BF18467FE70123A5
:10441000324649464046D04701303FF476AF013539
:10442000E36803995B1AAB42F1DCEAE7002504F18B
:104430001906F5E7BF690008D0690008002310B528
:104440000446C0E90033C0E90433836081814366D8
:10445000C2818361194608225C3000F0F9F90D4BE6
:1044600063620D4BA3620D4BE3620D4B23630D4B57
:1044700024629C4206D003F16802944202D0D033F9
:104480009C4205D104F15800BDE8104000F056BA36
:1044900010BD00BFA1460008C3460008FB46000847
:1044A0001F47000888220020024A0349034800F001
:1044B00069B800BF0C000020516300081C000020F8
:1044C00041680C4B994210B5044601D001F040FF01
:1044D000A168094B994202D0204601F039FFE168FA
:1044E000064B994204D02046BDE8104001F030BF91
:1044F00010BD00BF88220020F02200205823002099
:1045000010B50B4B0B4C0C4A1A60204600220421BC
:10451000FFF794FF04F1680001220921FFF78EFFE5
:1045200004F1D0000222BDE810401221FFF786BF3F
:10453000C023002088220020A9440008014800F080
:10454000FEB900BFC9230020014800F0F9B900BF3F
:10455000C923002010B50446FFF7F0FF236A1BB102
:10456000BDE81040FFF7F0BF044B2362044B1B680B
:10457000002BF5D1FFF7C4FFF2E700BFC1440008EC
:10458000C02300202DE9F84307468846144600263C
:10459000D4E90195B9F1010905D52468002CF7D1BA
:1045A0003046BDE8F883AB89012B07D9B5F90E3049
:1045B000013303D029463846C04706436835E9E74A
:1045C0000FB407B5064904AB086853F8042B81689B
:1045D000019301F021FD03B05DF804EB04B07047D6
:1045E00018000020036A70B5846805460E460BB9B2
:1045F000FFF7B0FF636EDB0705D4A389980502D4EB
:10460000A06D00F09CF9A389190702D52369002B3E
:1046100035D12146284600F0C5F880B34FF0FF356C
:10462000636EDA0705D4A3899B0502D4A06D00F060
:1046300087F9284670BD002B15DB23685A1C2260C1
:104640001970A36816F8011F013BA3600029F2D17D
:10465000002B16DA22460A21284600F064F80130C1
:10466000DCD00A25DCE7A2699A4201DC0A29E4D100
:104670002246284600F057F80130E2D1CEE7013E4D
:10468000DFE723685A1C22600A221A70E9E700005B
:10469000024B01461868FFF7A5BF00BF18000020B5
:1046A00010B50C46B1F90E1000F000F90028ABBFB0
:1046B000636DA3891B1823F48053ACBF6365A3818A
:1046C00010BD2DE9F0411F468B89DB0505460C46E0
:1046D000164605D5B1F90E100223002200F0D4F8D9
:1046E000A389B4F90E1023F48053A38132463B46CC
:1046F0002846BDE8F04100F0EBB810B50C46B1F922
:104700000E1000F0C1F8431CA38915BF606523F4A7
:10471000805343F48053A38118BFA38110BDB1F926
:104720000E1000F0A1B8F8B50E461446054618B1B3
:10473000036A0BB9FFF70EFFA369A360A3891A07E9
:1047400001D5236943B92146284600F02BF818B15A
:104750004FF0FF373846F8BD23682269981A63691D
:10476000F6B28342374605DC2146284601F0F0FDCB
:104770000028EDD1A368013BA36023685A1C226086
:104780001E706269431C9A4204D0A389DB07E1D5FD
:104790000A2EDFD12146284601F0DAFD0028D9D0C3
:1047A000D6E7000038B5294B054618680C4618B105
:1047B000036A0BB9FFF7CEFEB4F90C30190722D407
:1047C000DA0607D409222A6043F04003A3814FF0A0
:1047D000FF3033E0580712D5616B41B104F1440357
:1047E000994202D0284600F06FFF00236363A3893B
:1047F00023F02403A3810023636023692360A3893A
:1048000043F00803A38123694BB9A38903F4207300
:10481000B3F5007F03D02146284601F0E7FDB4F947
:104820000C3013F001020AD00022A26062695242E9
:10483000A261226942B913F08000C5D138BD990741
:1048400058BF6269A260F4E70020F7E71800002073
:1048500002440346934200D1704703F8011BF9E775
:10486000004870475801002038B5064D0023044623
:1048700008462B6001F0D8FE431C02D12B6803B11F
:10488000236038BDC423002038B5074D04460846D0
:10489000114600222A601A4601F0EEFE431C02D1A6
:1048A0002B6803B1236038BDC423002038B5074D01
:1048B00004460846114600222A601A4601F0E4FE2A
:1048C000431C02D12B6803B1236038BDC4230020F0
:1048D00038B5074D04460846114600222A601A469C
:1048E000FEF781FA431C02D12B6803B1236038BD67
:1048F000C423002070B50D4D0D4C641BA410002680
:10490000A64209D10B4D0C4C02F026F8641BA410F2
:104910000026A64205D170BD55F8043B98470136E4
:10492000EEE755F8043B98470136F2E7FC6C0008C7
:10493000FC6C0008FC6C0008046D000870477047B0
:1049400070470A44914200F1FF3300D1704710B51F
:1049500011F8014B03F8014F9142F9D110BD2DE937
:10496000F74F03690C69A34207467EDB013C01F166
:104970001408A30000F11405009305EB84030193D0
:1049800058F8243055F8242001339A4208EB840962
:10499000B2FBF3F62ED34FF0000AC446AE46D34620
:1049A0005CF8043B98B206FB00A0020C1B0C06FB53
:1049B0000323DEF8002080B292B2121A5A44DEF8C5
:1049C00000004FEA134A9BB2C3EB224303EB1043B0
:1049D00092B242EA0342E1454EF8042B4FEA234BE0
:1049E000DED2009BEB582BB9019B043B9D421A463B
:1049F0002FD33C61384601F0DDF9002825DB29463C
:104A0000002058F8042BD1F800C01FFA82FE1FFACC
:104A10008CF3A3EB0E030344120CC2EB234202EB14
:104A20001C429BB243EA0243C14541F8043B4FEAB2
:104A30002240E6D255F8242005EB840322B9043B3A
:104A40009D421A460BD33C610136304603B0BDE8A7
:104A5000F08F1268043B002ACBD1013CC6E71268F4
:104A6000043B002AEFD1013CEAE70020EEE700001A
:104A70002DE9F04FC76997B08DED000B55EC104B49
:104A8000209E089183460C9212937FB9102000F06B
:104A900065FE0246CBF81C0020B9A74BEF21A748C2
:104AA00001F012FDC0E901770760C760DBF81C3038
:104AB000196859B15A684A60012393408B6058467F
:104AC00000F03AFFDBF81C3000221A602B1EB9BF41
:104AD00023F00043019300233360019F984BBCBF38
:104AE00001223260BB4319D1129A42F20F73136054
:104AF000C7F31303234300F0DD85219B53B9914B8A
:104B000021E0914B03930833219A1360039817B067
:104B1000BDE8F08F8B4B03930333F5E79DED007BEE
:104B2000002251EC170B00238DED0A7BFBF7ACFF45
:104B3000804650B1129A01231360219B13B1219A30
:104B4000824B1360824B0393E0E79DED0A0B14AA9E
:104B500015A9584601F0DEF9C7F30A560290002E57
:104B600078D00B9BCDF84C80C3F31303DDE90A0129
:104B700043F07F5343F44013A6F2FF361946002258
:104B8000744BFBF761FB66A3D3E90023FBF714FD2D
:104B900065A3D3E90023FBF759FB044630460D46D5
:104BA000FBF7A0FC62A3D3E90023FBF705FD024657
:104BB0000B4620462946FBF749FB04460D46FBF70A
:104BC000ABFF00220746002320462946FBF766FF7D
:104BD00040B13846FBF786FC22462B46FBF754FFD4
:104BE00000B9013F162F52D85B4B03EBC703D3E943
:104BF0000023DDE90A01FBF751FF002849D0013FFE
:104C000000231193149B9B1B5A1E45BFC3F1010344
:104C1000069300230023079254BF06930793002FA7
:104C200039DB079B10973B44079300230993089BAC
:104C3000092B66D8052BC4BF043B0893089BA3F13E
:104C40000203CCBF00240124032B65D8DFE803F066
:104C50002B383657DDE914631E4406F23243202B0D
:104C6000C1BFC3F140039F4006F2124324FA03F38D
:104C7000D6BFC3F1200347EA030004FA03F0FBF7B1
:104C800021FC0122A1F1F873013E139276E7012382
:104C9000B7E71190B6E7069BDB1B06937B420993AF
:104CA00000231093C3E700230D930C9B002B57DCCC
:104CB0000123049399461A460C920CE00123F3E772
:104CC00000230D930C9BFB1803F1010904934B4641
:104CD000012BB8BF0123DBF81C000021042202F1E4
:104CE00014059D4240D94160584600F0E5FD03900F
:104CF00000283CD1194B024640F2AF11CFE6012308
:104D0000DFE70124002308930D944FF0FF33049351
:104D1000994600221223CFE701230D93F5E700BF48
:104D200061436F63A787D23FB3C8608B288AC63FB1
:104D3000FB799F501344D33FEE690008056A0008D1
:104D40000000F07FEA690008E1690008BE69000818
:104D5000BD6900080000F83F286B0008476A00089A
:104D60000C9B04939946B6E701315200B7E7DBF894
:104D70001C30039A1A60B9F10E0F6FD8002C6DD059
:104D8000002F36DDA14B07F00F0203EBC20393EDBA
:104D9000007BF8058DED0E7B4FEA271417D59C4B51
:104DA000DDE90A01D3E90823FBF730FDCDE9000175
:104DB00004F00F044FF00308954D5CB9DDE90E23B4
:104DC000DDE90001FBF722FDCDE900012BE04FF00A
:104DD0000208F1E7E10709D5DDE90E01D5E9002375
:104DE000FBF7EAFBCDE90E0108F101086410083574
:104DF000E3E700F007817C42844B854D04F00F020D
:104E000003EBC203D3E90023DDE90A01FBF7D4FB7E
:104E1000CDE90001241100234FF00208002C40F0DE
:104E2000E580002BD0D1119BDDE90045002B00F07F
:104E30004C81784B002220462946FBF72FFE0028A4
:104E400000F04381B9F1000F00F03F81049B002B7B
:104E500000F3E480DDE90A34CDE90034159B002B32
:104E600002DB0E2F40F342820D9A002A40F0678247
:104E7000099CDDF818800025B8F1000F0DD0079BC4
:104E8000002B0ADD4345069AA8BF4346D21A069274
:104E9000079AA8EB0308D31A0793099B0BB30D9B42
:104EA000002B00F0A682002C00F0A18229462246A9
:104EB000584600F0B9FE029A01460546584600F0F1
:104EC00009FE02990646584600F036FD099B1B1B59
:104ED000099300F09182099A3146584600F0A4FEE9
:104EE00002900121584600F0DFFD109B0446002B84
:104EF00000F084821A460146584600F095FE089B51
:104F0000012B044603DC009B002B00F07C82002672
:104F1000236904EB8303186900F076FD1096C0F155
:104F20002000079B184410F01F0000F09182C0F190
:104F30002003042B40F38182069BC0F11C00034434
:104F40000693079B034480440793069B002B05DDD3
:104F500002991A46584600F0C1FE0290079B002BAA
:104F600005DD21461A46584600F0B8FE0446119B5E
:104F7000002B00F076820298214600F01BFF0028EB
:104F800080F26F82002302990A22584600F0F6FC54
:104F90000D9B02907E1E002B00F05C8200232946B0
:104FA0000A22584600F0EAFC049B002B054603DC6D
:104FB000089B022B00F35E82B8F1000F05DD294645
:104FC0004246584600F08AFE0546109B002B00F032
:104FD000D0826968584600F06FFC0746002840F010
:104FE0007F820D4B024640F2EF2158E5E20706D5DD
:104FF000D5E90023FBF7E0FA08F10108012364106A
:1050000008350BE74FF002080DE700BF286B0008DA
:10501000006B00080000F03F476A00082046AD4BD7
:1050200000222946FBF7C8FACDE90001049C7E1E48
:1050300008F101084046FBF755FADDE90023FBF7CC
:10504000BBFAA54B0022FBF701F9A1F15073CDE9A2
:105050000E010F93002C3BD1DDE900019F4B002294
:10506000FBF7F2F802460B46CDE90023DDE90E23FB
:10507000FBF732FD002840F05781DDE90E2101F1F8
:105080000043DDE90001FBF709FD00283FF4E2AE33
:10509000002425460C9BDDF80CA0DE434FF00008F1
:1050A0002146584600F048FC002D00F0A980B8F1D8
:1050B000000F05D0A84503D04146584600F03CFCFF
:1050C0002946584600F038FC9AE03E464C46B1E787
:1050D000834B03EBC40353E90201039B1C440D9B68
:1050E000002B4AD002460B4600207E49FBF78EFB80
:1050F000DDE90E23FBF7A8F8CDE90E01DDF80CA0E1
:10510000DDE90001FBF708FD0546FBF7EBF9024678
:105110000B46DDE90001FBF797F83035CDE90001DA
:1051200002460B460AF8015BDDE90E01FBF7D4FCF1
:10513000002865D1DDE900236B490020FBF784F8E6
:1051400002460B46DDE90E01FBF7C6FC002840F0E5
:105150000D81A24500F0EA80DDE90E015D4B0022E1
:10516000FBF72AFA5B4BCDE90E010022DDE90001D5
:10517000FBF722FACDE90001C2E7DDE90E23FBF7D8
:105180001BFACDE90E01DDF80CA0A046DDE9000117
:10519000FBF7C2FC0546FBF7A5F902460B46DDE925
:1051A0000001FBF751F830350AF8015B02460B4667
:1051B000A245CDE900234FF0000223D1494BDDE9A0
:1051C0000E01FBF743F802460B46DDE90001FBF751
:1051D00083FC002840F0CA80DDE90E23414900200D
:1051E000FBF732F802460B46DDE90001FBF756FCFF
:1051F00070B1C24608F1FF381AF8013C302BF8D0E4
:10520000374655E0334BFBF7D7F9CDE90001BDE751
:10521000DDE90A34CDE90034159B002BFFF628AEFA
:105220000E2F3FF725AE2E4B03EBC70393ED007B0C
:105230000C9B002B8DED047B02DAB9F1000F64D0DA
:10524000DDE90045DDF80CA0DDE904232046294610
:10525000FBF7DCFAFBF760FC0646FBF743F9DDE9F8
:105260000423FBF7A9F902460B462046294606F11E
:105270003004FAF7E9FF0AF8014B039CAAEB040497
:10528000A14502460B4640F08280FAF7DFFFDDE9D8
:10529000042304460D46FBF71FFC002865D1DDE919
:1052A000042320462946FBF7EFFB08B1F3075CD443
:1052B0000299584600F040FB00238AF80030129B08
:1052C00001371F60219B002B3FF420ACC3F800A0E6
:1052D0001CE400BF0000244000001C4000001440FB
:1052E000286B00080000E03F0000F03FA24B03EBFA
:1052F000C70393ED007B0C9B002B8DED047B9FDAA5
:10530000B9F1000F9CDC7FF4C3AE9C4B0022DDE9B9
:105310000401FBF751F9DDE90023FBF7D3FB044659
:1053200000287FF4B5AE3E462546B4E0DDE90A34F8
:10533000CDE90034159B002B01DB0E2FD6DD089A3A
:10534000012A36DC139A82B303F23343099CDDF859
:105350001880069A1A440692079A01211A44584660
:10536000079200F0A1FB054686E53E4653469A4665
:1053700013F8012D392A06D1039A9A42F7D10399DD
:10538000302201360A701A7801321A7038E77C4BE5
:105390000022FBF711F90022002304460D46FBF71B
:1053A00073FB00283FF450AF82E7149BC3F1360330
:1053B000CCE7099B09F1FF34A34208DBB9F1000FE8
:1053C000A3EB04040EDBDDF818804B46C1E7099B14
:1053D000109A0994E31A1A44DDF8188010924B468B
:1053E0000024B6E7069BA3EB09080023B1E7029E61
:1053F00071E5099A029970E5029672E5089B012B06
:1054000017DC009BABB9019BC3F313039BB9019B52
:1054100023F00046360D360536B1069B0133069360
:10542000079B013307930126109B002B7FF470AD7F
:105430001096012075E50026F6E73FF486AD069A42
:105440001C331A440692079A1A44984407927CE542
:105450000346F4E7049B002B2BDC089B022B09DCA2
:1054600027E0B9F1000F1DDC089B022B1ADDCDF8F7
:1054700010903E46049B002B7FF40CAE2146052283
:10548000584600F07BFA01460446029800F092FC70
:1054900000287FF7FFADDDF80CA031230AF8013BAF
:1054A0000136FBE50D9BCDF810903E46002B7FF4B6
:1054B00083AD039F02982146FFF751FA00F13009AE
:1054C00007F8019B039B049AFB1A9A4240F3CB8096
:1054D000029900230A22584600F050FA0290E9E7A8
:1054E0002A690232920005F10C010C30FFF729FA0B
:1054F00001223946584600F0F1FB039B03F1010AF3
:10550000DDE9032313440793009B03F00103A8463E
:10551000099305460AF1FF33214602980493FFF7E9
:105520001EFA4146069000F13009029800F042FC54
:105530002A4621460746584600F058FCC2680146F4
:1055400002B3584600F0F8F9002F3ADA0299012226
:10555000584600F0C3FB2146029000F02BFC0028C7
:1055600003DC29D119F0010F26D0B9F1390F1DD173
:1055700032E02846C1E700BF286B00080000144055
:10558000000024400A90029800F014FC0A990C9044
:10559000584600F0D1F90C9A5ABB089B53B9099BA5
:1055A00043B9B9F1390F17D0002F05DD069B03F180
:1055B000310901E0002F2ADADDF810A00AF8019B7A
:1055C0006EE5089B3B4304D1009B03F00103002BD5
:1055D000BCD0B9F1390F36D1049F392307F8013B0C
:1055E000BA46013F1AF8013C392B5BD001333B70BE
:1055F00056E5002F06DB089B3B4306D1009B03F0DA
:10560000010313B9002AA1DCD6E7002AE1DC079BDD
:105610000AF8019C534557462FD0029900230A22CD
:10562000584600F0ABF9A84502904FF000034FF048
:105630000A02414658460BD100F0A0F980460546C3
:105640000AF1010A66E7DDF810A009F10109B5E7E2
:1056500000F094F92946804600230A22584600F0BB
:105660008DF90546ECE7049B002BC8BF1F46039B42
:10567000D8BF01271F444FF0000802990122584665
:1056800000F02CFB2146029000F094FB0028A7DCE0
:1056900002D119F0010FA3D1BA4617F8013D302B02
:1056A000FAD0FDE4039BBB429AD1039A3123013621
:1056B0001370F5E4219B002B7FF423AA014BFFF725
:1056C00042BA00BFE169000838B50546002941D05B
:1056D00051F8043C0C1F002BB8BFE41800F0E0F8B0
:1056E0001D4A136833B9636014602846BDE838402A
:1056F00000F0DCB8A34208D9206821188B4201BF12
:1057000019685B6809182160EDE71A465B680BB100
:10571000A342FAD911685018A0420BD12068014465
:10572000501883421160E0D118685B6853600844E8
:105730001060DAE702D90C232B60D6E72068211825
:105740008B4204BF19685B68636004BF091821605D
:105750005460CAE738BD00BFD0230020024B014689
:10576000186800F025B800BF1800002070B50F4E73
:105770000C463168054611B900F096FE30602146AE
:10578000284600F091FE431C03D14FF0FF34204621
:1057900070BDC41C24F00304A042F8D0211A28468E
:1057A00000F082FE0130F2D1EFE700BFCC230020F1
:1057B0002DE9F041CD1C25F0030508350C2D38BF2F
:1057C0000C25002D064601DBA94204D90C233360C9
:1057D0000020BDE8F081314F00F062F83B681C46C4
:1057E00044BB29463046FFF7C1FF431C044650D155
:1057F0003C682146002941D1002C44D02368304622
:1058000004EB030800F050FE80453CD121686D1A7E
:1058100029463046FFF7AAFF013034D023682B44D5
:1058200023603B68002B36D05A68A24229D100225F
:105830005A600EE02268521B1DD40B2A16D961193A
:10584000A342256018BF5960636808BF3960625180
:105850004B60304600F02AF804F10B00231D20F0C5
:105860000700C21AB5D01B1AA350B2E7A342626860
:10587000DED13A60EDE723466468B1E70C4649683B
:10588000B8E71346CEE70C233360304600F00EF83D
:105890009EE70560DDE75B60FFDE00BFD0230020F0
:1058A0000148FFF74CB800BFC82300200148FFF7AC
:1058B00047B800BFC823002070B5C66904460D462E
:1058C00076B91020FFF74AFF0246E06120B9184B75
:1058D00018486B2100F0F8FDC0E901660660C6605B
:1058E000E669F36883B1E369DB6853F82500B8B96A
:1058F000012101FA05F6721D9200204600F002FE19
:1059000060B1C0E901560EE021220421204600F0DA
:10591000F9FDE369F060DB68002BE4D1002070BD85
:10592000026843F825200023C0E90333F7E700BFEE
:10593000EE690008586A000870B5C66905460C464D
:1059400076B91020FFF70AFF0246E86120B9094B3B
:1059500009488F2100F0B8FDC0E901660660C66005
:105960003CB1EB696268DB6853F82210216043F8B0
:10597000224070BDEE690008586A00082DE9F04128
:105980000D6907460C461E4601F1140C0020DCF898
:10599000003099B202FB01611E0C0B0C02FB0633B6
:1059A00089B2013001EB034185424CF8041B4FEAF8
:1059B0001346ECDC0EB3A368AB4219DC61683846D1
:1059C0000131FFF779FF804628B902460C4B0D489C
:1059D000BA2100F079FD2269023204F10C01920033
:1059E0000C30FEF7AEFF21463846FFF7A5FF4446D0
:1059F00004EB850301355E6125612046BDE8F08139
:105A0000476A0008586A0008B0F5803F034636BF71
:105A1000030400201020B3F1807F3CBF1B0208303C
:105A2000B3F1805F3CBF1B010430B3F1804F03D35F
:105A3000002B0ADB013070479B0001D50230704714
:105A40005B0001D503307047202070470368024691
:105A500013F007000BD0D90721D4980749BF5B0882
:105A60009B08012013605CBF13600220704799B24D
:105A700009B91B0C1020D9B209B908301B0A190743
:105A800004BF1B090430990704BF9B080230D907E3
:105A900003D45B0800F1010003D0136070470020BD
:105AA000704720207047000010B50C460121FFF719
:105AB00003FF024628B9054B054840F2451100F0A6
:105AC00003FD01234461036110BD00BF476A000864
:105AD000586A00082DE9F04F14460A6923699A4272
